:020000040000FA
:060000000A128A11162805
:10000800FE00030E83160313CB000408CC000A0875
:10001800CD00831203137F0883160313CE000A1240
:100028008A1500280A128A11192883160313CF018A
:10003800D001D101D20183160317C201C301C40143
:10004800C501C60183010A168A15F32B831603130B
:10005800BD00A130A5002508AE000130A007FF3083
:10006800200784000A168A110A200A128A11A5009C
:100078002508C20042080319912D253042060319AC
:1000880047284208862DAF01B0014C283015662854
:100098000130A007FF30200784000A168A110A20C1
:1000A8000A128A11C200A500A6012608003A0319FF
:1000B8005E2831282508003A0319912D663A03195C
:1000C8004A28312800302F05A50007303005A60042
:1000D8002508260403197B2D0630B1000030B20034
:1000E8002E08840083130008BE00840A0008BF009D
:1000F800840A0008C000840A0008C1000430A50072
:100108002508AE074108F3004008F2003F08F10057
:100118003E08F0000030F7000030F6000030F5002F
:100128000030F4000A168A1147210A128A110318AE
:10013800BA28831603134108F3004008F2003F0869
:10014800F1003E08F0000A168A15BA220A128A112E
:10015800730883160313C1007208C0007108BF003A
:100168007008BE000330AF040030B00483160313D8
:10017800B701B8014108F3004008F2003F08F10058
:100188003E08F0000030F7000030F6000030F500BF
:100198000030F4000A168A151E250A128A1103185F
:1001A800BE29031083160313400D410D823EB7008C
:1001B800FF3003180030B800FF30B7070318B80A3B
:1001C800FF30B8070330F0000030F1003808F300C2
:1001D8003708F2000A168A152D230A128A117108A7
:1001E80083160313B8007008B7000A30F700003010
:1001F800F8003808FA003708F9000A168A15E626C2
:100208000A128A11780883160313B8007708B70012
:10021800B81F1429FF30B7070318B80AFF30B8070A
:100228003703FF3A0A128A15B7240A128A11831271
:100238000313410883160313BC00831203134008F9
:1002480083160313BB00831203133F08831603139B
:10025800BA00831203133E0883160313B90041083A
:1002680083120313A7008316031340088312031392
:10027800A600831603133F0883120313A5008316F1
:1002880003133E0883120313A400831603133C08C8
:1002980083120313AB00831603133B088312031363
:1002A800AA00831603133A0883120313A9008316BE
:1002B8000313390883120313A8000A128A15A2210E
:1002C8000A128A1183120313270883160313BC002A
:1002D80083120313260883160313BB008312031328
:1002E800250883160313BA00831203132408831600
:1002F8000313B9003C08F3003B08F2003A08F10088
:100308003908F0003F30F7008030F6000030F50083
:100318000030F4000A168A1147210A128A110318BC
:100328009D29FF3083160313B7070318B80AFF3057
:10033800BD29831603133C08F3003B08F2003A0872
:10034800F1003908F0004130F7002030F6000030A5
:10035800F5000030F4000A168A1147210A128A11A2
:10036800031CBE29013083160313B7070318B80A04
:100378000030B80706300A168A11D0230A128A11EB
:10038800831203134108D5004008D4003F08D30066
:100398003E08D20083160313410883120313D900C1
:1003A80083160313400883120313D800831603131C
:1003B8003F0883120313D700831603133E088312E2
:1003C8000313D6000A168A11D1250A128A1183123C
:1003D8000313550883160313C1008312031354082B
:1003E80083160313C00083120313530883160313E1
:1003F800BF0083120313520883160313BE00380884
:10040800803AFF0080307F02031D0C2A0A30370231
:100418000318592A831603134108F3004008F20011
:100428003F08F1003E08F0000030F7000030F60009
:100438000030F5000030F4000A168A151E250A124D
:100448008A110318C22A831603134108831203135F
:10045800D40083160313400883120313D3008316B2
:1004680003133F0883120313D200831603133E08B5
:1004780083120313D1000A168A11DA200A128A118C
:10048800831203135408530452045104031DC22A4F
:10049800831603133808803AFF0080307F02031D5B
:1004A800572A02303702031CC22A831603133C085A
:1004B800F3003B08F2003A08F1003908F000403038
:1004C800F7008930F6007030F5005F30F4000A1646
:1004D8008A1147210A128A110318742AF730752ADB
:1004E800F83083160313B7070318B80AFF30B807A4
:1004F80037080A128A15B7240A128A1183120313BD
:10050800410883160313BC008312031340088316A3
:100518000313BB00831203133F0883160313BA00A7
:10052800831203133E0883160313B9004108F3002E
:100538004008F2003F08F1003E08F0003C08F700D0
:100548003B08F6003A08F5003908F4000A168A1143
:1005580026230A128A11730883160313B600720839
:10056800B5007108B4007008B3000030C100003055
:10057800C0000030BF000030BE00462B83160313B6
:10058800410883120313D40083160313400883120F
:100598000313D300831603133F0883120313D200F7
:1005A800831603133E0883120313D1000A168A1117
:1005B800DA200A128A1183120313540883160313CC
:1005C800B60083120313530883160313B50083126E
:1005D8000313520883160313B4008312031351083C
:1005E80083160313B3003608F3003508F200340805
:1005F800F1003308F00000300A168A11DA210A12D5
:100608008A11730883120313E9007208E80071085D
:10061800E7007008E60083160313410883120313EA
:10062800ED0083160313400883120313EC008316AE
:1006380003133F0883120313EB00831603133E08CA
:1006480083120313EA000A168A154E230A128A1126
:1006580083120313690883160313C100831203135B
:10066800680883160313C0008312031367088316F0
:100678000313BF0083120313660883160313BE0017
:10068800B701B801C201C20A4208A500013003102F
:10069800A50DFF3E031D4B2B0310250D693E84005D
:1006A8000A168A110A200A128A11A6000A168A1145
:1006B8000A200A128A11A7000A168A110A200A12A9
:1006C8008A11A8000A168A110A200A128A11A9009A
:1006D80029083602031D7A2B28083502031D7A2BB8
:1006E80027083402031D7A2B26083302031C842BA7
:1006F8000130A5002508C2070A304206031D482B11
:1007080003302F05A50000303005A6002508260473
:100718000319992B2D30A5003D088400250883175F
:1007280080000130A5002508BD070130C202420A39
:1007380003190E2C4208A50001300310A50DFF3E39
:10074800031DA12B0310250D693E84000A168A118A
:100758000A200A128A11F0000A168A110A200A12BF
:100768008A11F1000A168A110A200A128A11F20067
:100778000A168A110A200A128A11F3003608F700AD
:100788003508F6003408F5003308F4000A168A150F
:1007980041270A128A11730883160313BC007208D2
:1007A800BB007108BA007008B9000030F3000030CF
:1007B800F2000030F1000A30F0003C08F7003B0876
:1007C800F6003A08F5003908F4000A168A15FB25E0
:1007D8000A128A11730883160313BC007208BB003F
:1007E8007108BA007008B9003908303E8F2B3030D4
:1007F80083160313A5003D0884002508831780008D
:100808000130A5002508BD07FF30B7070318B80A4F
:10081800FF30B8073808803AFF0080307F02031D98
:10082800172C013037020318FB2B831603133208E9
:10083800803AFF0080307F02031D242C09303102EA
:10084800031C2A2C0830831603132D2C831603133C
:100858003108A5002508C2004208A500A601250800
:10086800B1022608031CB203B20242080319472C3E
:100878002E30A5003D08840025088317800001302C
:10088800A5002508BD0742080A128A15B7240A12CE
:100898008A1183120313410883160313AD008312D0
:1008A8000313400883160313AC00831203133F0895
:1008B80083160313AB00831203133E088316031336
:1008C800AA002D0883120313AB00831603132C0808
:1008D80083120313AA00831603132B08831203132E
:1008E800A900831603132A0883120313A80083168A
:1008F8000313410883120313A70083160313400848
:1009080083120313A600831603133F0883120313ED
:10091800A500831603133E0883120313A4000A12CA
:100928008A15A2210A128A11831203132708D400F8
:100938002608D3002508D2002408D1000A168A11F7
:10094800DA200A128A118312031354088316031338
:10095800B60083120313530883160313B5008312DA
:100968000313520883160313B400831203135108A8
:1009780083160313B3000130C202420A0319762D0D
:100988004208A50001300310A50DFF3E031DC72C2A
:100998000310250D693E84000A168A110A200A12DE
:1009A8008A11F0000A168A110A200A128A11F10027
:1009B8000A168A110A200A128A11F2000A168A11E6
:1009C8000A200A128A11F3003608F7003508F600E3
:1009D8003408F5003308F4000A168A1541270A126C
:1009E8008A11730883160313BC007208BB007108D0
:1009F800BA007008B9000030F3000030F20000308F
:100A0800F1000A30F0003C08F7003B08F6003A080D
:100A1800F5003908F4000A168A15FB250A128A110E
:100A2800730883160313BC007208BB007108BA0070
:100A38007008B9003908303EA5003D088400250833
:100A4800831780000130A5002508BD074208A500CE
:100A580001300310A50DFF3E031D2D2D0310250D9C
:100A6800693E84000A168A110A200A128A11F000C7
:100A78000A168A110A200A128A11F1000A168A1126
:100A88000A200A128A11F2000A168A110A200A128A
:100A98008A11F3003608F7003508F6003408F50027
:100AA8003308F4000A168A15FB250A128A117308FE
:100AB80083160313B6007208B5007108B4007008F5
:100AC800BE2C3030A5003D0884002508831780001F
:100AD8000130A5002508BD07FF30B1070318B20A89
:100AE800FF30B2073108320403193128652D03306D
:100AF8002F05A50000303005A60025082604031997
:100B080031282D30A5003D08840025088317800072
:100B18000130A5002508BD0731283D08840083174A
:100B280080010800831203136D08803983160313AC
:100B3800A0002008A900831203136D08831603136D
:100B4800A0002007A1002108B00083120313EC1FA6
:100B5800B02D8316031330148316031330080319BA
:100B6800C62D300A031DC22D003083120313ED0079
:100B78000030EC000030EB000030EA008312EC1784
:100B8800ED01D02D003083120313ED000030EC008E
:100B98000030EB000030EA0069088039831603133F
:100BA800A0002008A90683120313690883160313FB
:100BB800A0002007A1002108B10083120313E81F39
:100BC800E82D831603133114831603133108031910
:100BD800FE2D310A031DFA2D003083120313E9009C
:100BE8000030E8000030E7000030E6008312E81724
:100BF800E901082E003083120313E9000030E800F1
:100C08000030E7000030E6006908680467046604FD
:100C1800031D2B2E0030ED000030EC000030EB00FF
:100C28000030EA008030EC047F30ED0483160313B3
:100C38002908A000200883120313ED046D08E900B9
:100C48006C08E8006B08E7006A08E60008008316ED
:100C580003133008031D3B2E003083120313E900F1
:100C68000030E8000030E7000030E60008003008F7
:100C7800A000A1012108A30031082002A200031C42
:100C8800A30322087F3EAA0023080318013E003E62
:100C9800AB00831203136D0883160313A800831295
:100CA80003136C0883160313A700831203136B083E
:100CB80083160313A600831203136A08831603130B
:100CC800A500003083120313ED000030EC00003063
:100CD800EB000030EA00003083160313AF00003049
:100CE800AE000030AD000030AC00B1011A30310266
:100CF8000318F52E31080319A72E0130A0000310A0
:100D0800A50DA60DA70DA80DA00B832E0130A000E0
:100D1800031083120313EA0DEB0DEC0DED0D831692
:100D28000313A00B8C2EAF1F9C2E831203136A147F
:100D3800013083160313A0000310AC0DAD0DAE0DEA
:100D4800AF0DA00BA02E831203136908831603139B
:100D58002802031DC52E8312031368088316031384
:100D68002702031DC52E8312031367088316031376
:100D78002602031DC52E8312031366088316031368
:100D88002502031CF02E2F178312031366088316FF
:100D98000313A502831203136708031C670FD52EDC
:100DA800D82E83160313A602831203136808031CA4
:100DB800680FDF2EE22E83160313A7028312031394
:100DC8006908031C690FE92EEC2E83160313A80289
:100DD80083120313831603130130A0002008B10700
:100DE8007A2E2808270426042504031D2C148312B0
:100DF8000313EC1B252F013083160313A0000310E7
:100E080083120313EA0DEB0DEC0DED0D831603139E
:100E1800A00B032FAF1F132F831203136A14013083
:100E280083160313A0000310AC0DAD0DAE0DAF0D6E
:100E3800A00B172FFF30AA070318AB0AFF30AB0728
:100E4800FB2E83160313B101AF1F442FFF302C056F
:100E5800A000FF302D05A100FF302E05A2007F3035
:100E68002F05A3002308220421042004031D402F7A
:100E7800831203136A1C442F83160313B101B10AAA
:100E88008316031331080319982F013083120313B3
:100E9800EA07003003180130EB070030031801306F
:100EA800EC07003003180130ED076D1C982F6A0815
:100EB80083160313A000831203136B08831603130E
:100EC800A100831203136C0883160313A200831274
:100ED80003136D0883160313A3000130A400230D28
:100EE800A30CA20CA10CA00CA40B732F2308831233
:100EF8000313ED0083160313220883120313EC0077
:100F080083160313210883120313EB0083160313BC
:100F1800200883120313EA00013083160313AA077B
:100F28000318AB0A0030AB07831603132B08803A6B
:100F3800FF0080307F02031DA32FFF302A02031C0D
:100F4800B52FFF3083160313AA000030AB00003022
:100F580083120313ED000030EC000030EB0000308A
:100F6800EA00831603132B08803AFF0080307F02C3
:100F7800031DC02F01302A020318D32F8316031331
:100F8800AA01AB01003083120313ED000030EC001E
:100F98000030EB000030EA0083160313A901831622
:100FA80003132A08A0002008B000301CDF2F83128A
:100FB8000313EC17E52F7F30A000200883120313DA
:100FC800EC05831603133008A0000310200CA100C1
:100FD800210883120313ED001A2E8730831603139A
:100FE800810006308312031381008B168B170B17B1
:020FF8000800EF
:101000000B1D91290B11831603174508F3004408A3
:10101000F2004308F1004208F0004230F70094303B
:10102000F6000030F5000030F4000A168A151E257F
:101030000A128A15031C52290630831203138100F9
:10104000003083160317C5000030C4000030C30011
:101050000030C2000A168A15C3220A128A15F4014A
:10106000F40A01300A168A1566250A128A15A73075
:10107000F5008030F6000A168A159E240A128A1599
:10108000831203131F151F194328F401F40A0230B9
:101090000A168A1566250A128A15831603131E0876
:1010A000C300C401C501C6014608F3004508F200AB
:1010B0004408F1004308F00000300A168A11DA21D2
:1010C0000A128A15730883120313D5007208D4001C
:1010D0007108D3007008D2004330A7008030A6000A
:1010E0000030A5000030A4001E0883160313C700BB
:1010F000C801C901CA014A08F3004908F2004808BA
:10110000F1004708F00000300A168A11DA210A12AD
:101110008A15730883120313AB007208AA007108C2
:10112000A9007008A8000A128A15A2210A128A15BD
:10113000831203132708D9002608D8002508D700F2
:101140002408D6000A168A11D1250A128A1583129C
:101150000313550883160317B500831203135408AD
:1011600083160317B400831203135308831603175F
:10117000B30083120313520883160317B2004430DE
:1011800083120313E9007F30E800C030E70000302D
:10119000E6004030A700A030A6000030A5000030D7
:1011A000A40083160317350883120313AB008316BC
:1011B0000317340883120313AA0083160317330896
:1011C00083120313A9008316031732088312031333
:1011D000A8000A128A15A2210A128A158312031383
:1011E0002708ED002608EC002508EB002408EA009B
:1011F0000A128A1196250A128A15831203136908A6
:1012000083160317B10083120313680883160317AC
:10121000B00083120313670883160317AF0083120D
:101220000313660883160317AE00B2308316031348
:10123000C3004308A0008316031731088316031365
:10124000A40083160317300883160313A300831624
:1012500003172F0883160313A200831603172E0803
:1012600083160313A10090300A128A112A200A1251
:101270008A159030F5000130F6000A168A159E2472
:101280000A128A15831603174608031D4D29C60145
:10129000C60A8312031386149129C601831203130D
:1012A000861091293F3083120313D5008030D4007B
:1012B0000030D3000030D200831603174508831294
:1012C0000313D90083160317440883120313D800AD
:1012D00083160317430883120313D70083160317DB
:1012E000420883120313D6000A168A11D1250A1266
:1012F0008A1583120313550883160317C50083123A
:101300000313540883160317C400831203135308EE
:1013100083160317C300831203135208831603179F
:10132000C200831603134E0883120313FF008316B3
:1013300003134D088A004C0884004B0E8300FE0EF8
:101340007E0E09008312031327088039AC002C0895
:10135000B1002708AC002C07AD002D08B700A61B74
:10136000371437080319C129370A031DBF29003074
:10137000A7000030A6000030A5000030A400A6178A
:10138000C9290030A7000030A6000030A5000030B9
:10139000A4002B088039AC002C08B1062B08AC0047
:1013A0002C07AD002D08B600AA1B36143608031909
:1013B000E629360A031DE4290030AB000030AA00FC
:1013C0000030A9000030A800AA17EE290030AB00B9
:1013D0000030AA000030A9000030A8003608031D24
:1013E0003708031DFC290030A7000030A60000309C
:1013F000A5000030A40008002408AC002C08F00070
:101400002A080A168A1570230A128A15710883128F
:101410000313BD007008BC003C08AC00AD01AE0178
:10142000AF012F08B5002E08B4002D08B3002C081A
:10143000B2003D08AC00AD01AE01AF012F08BB000A
:101440002E08BA002D08B9002C08B8002508AC00F9
:101450002C08F00029080A168A1570230A128A152A
:10146000710883120313BD007008BC003C08AC0077
:10147000AD01AE01AF012C08B2072D08031103180E
:10148000013E031DB3072E0803110318013E031D7F
:10149000B4072F0803110318013E031DB5073D08CB
:1014A000AC00AD01AE01AF012C08B8072D08031147
:1014B0000318013E031DB9072E0803110318013E4E
:1014C000031DBA072F0803110318013E031DBB07B4
:1014D0002608AC002C08F00028080A168A1570238C
:1014E0000A128A15710883120313BD007008BC002C
:1014F0003C08AC00AD01AE01AF012C08B2072D08CD
:1015000003110318013E031DB3072E08031103182E
:10151000013E031DB4072F0803110318013E031DEC
:10152000B5073D08AC00AD01AE01AF012C08B8070E
:101530002D0803110318013E031DB9072E080311DE
:101540000318013E031DBA072F0803110318013EBB
:10155000031DBB070830AC000310B20DB30DB40D72
:10156000B50DAC0BAC2A2508AC002C08F0002808FF
:101570000A168A1570230A128A157108831203133A
:10158000BD007008BC003C08AC003D08AD00AE01D9
:10159000AF012C08B2072D0803110318013E031DEB
:1015A000B3072E0803110318013E031DB4072F08CB
:1015B00003110318013E031DB5072408AC002C08D5
:1015C000F00029080A168A1570230A128A15710874
:1015D00083120313BD007008BC003C08AC003D083A
:1015E000AD00AE01AF012C08B2072D08031103189E
:1015F000013E031DB3072E0803110318013E031D0E
:10160000B4072F0803110318013E031DB507083066
:10161000AC000310B20DB30DB40DB50DAC0B092B1E
:101620002408AC002C08F00028080A168A1570233C
:101630000A128A15710883120313BD007008BC00DA
:101640003C08AC003D08AD00AE01AF012C08B2076C
:101650002D0803110318013E031DB3072E080311C3
:101660000318013E031DB4072F0803110318013EA0
:10167000031DB5072508AC002C08F0002A080A163F
:101680008A1570230A128A15710883120313BD008C
:101690007008BC003C08AC003D08AD00AE01AF01D5
:1016A0002C08B8072D0803110318013E031DB907C4
:1016B0002E0803110318013E031DBA072F0803115A
:1016C0000318013E031DBB072608AC002C08F000E0
:1016D00029080A168A1570230A128A1571088312BE
:1016E0000313BD007008BC003C08AC003D08AD0011
:1016F000AE01AF012C08B8072D0803110318013EF5
:10170000031DB9072E0803110318013E031DBA0774
:101710002F0803110318013E031DBB072608AC0068
:101720002C08F0002A080A168A1570230A128A1556
:10173000710883120313BD007008BC003C08AC00A4
:101740003D08AD00AE01AF0108300310AC0DAD0D8A
:10175000AE0DAF0DFF3E031DA52B2C08B8072D08BD
:1017600003110318013E031DB9072E0803110318C6
:10177000013E031DBA072F0803110318013E031D84
:10178000BB073208AC003308AD003408AE003508A2
:10179000AF0018300310AF0CAE0CAD0CAC0CFF3E1C
:1017A000031DCA2B2C08B8072D0803110318013E8E
:1017B000031DB9072E0803110318013E031DBA07C4
:1017C0002F0803110318013E031DBB070830AC00AE
:1017D0000310B20DB30DB40DB50DAC0BE82B3708EB
:1017E0003607AC00AD01AD0D2C08823EBC002D08C3
:1017F0000318013EFF3EBD00BA1B192C0130AC009E
:101800000310B80DB90DBA0DBB0DAC0B002CB51BF8
:1018100038140130AC000310B20DB30DB40DB50D8A
:10182000AC0B0B2CFF30BC070318BD0AFF30BD0703
:10183000FC2BB601B51F322CFF303205AC00FF3057
:101840003305AD00FF303405AE007F303505AF0005
:101850002F082E042D042C0403193818302C322C98
:10186000B601B60A36080319642C0130B8070030F7
:1018700003180130B907003003180130BA070030EF
:1018800003180130BB073B1C642C3808AC00390836
:10189000AD003A08AE003B08AF000130B0002F0D9C
:1018A000AF0CAE0CAD0CAC0CB00B4F2C2F08BB002A
:1018B0002E08BA002D08B9002C08B8000130BC076A
:1018C0000318BD0A0030BD073D08803AFF00803094
:1018D0007F02031D6D2CFF303C02031C7A2C7F30ED
:1018E00083120313BB008030BA000030B90000300F
:1018F000B800AA2C831203133D08803AFF00803001
:101900007F02031D852C01303C020318932C00300C
:1019100083120313BB000030BA000030B90000305E
:10192000B800B101AA2C831203133C08AC002C08A8
:10193000B700FF30B805FF30B9057F30BA05003079
:10194000BB053718BA173708AC0003102C0CAD00D4
:101950002D08BB003108AC002C08BB043B08A700D5
:101960003A08A6003908A5003808A4000800831228
:101970000313D000D01F5F2ED009D00A5008803A40
:10198000123E031CA92D0A30F7000030F800500861
:10199000F200F301F21BF3036430F0000030F100B9
:1019A0000A168A15B0250A128A157108FA007008FD
:1019B000F9000A168A15E6260A128A157708831294
:1019C0000313C20001300310C20DFF3E031DE32CC0
:1019D0000310420D593E84000A168A110A200A1289
:1019E0008A15C3000A168A110A200A128A15C40031
:1019F0000A168A110A200A128A15C5000A168A11C7
:101A00000A200A128A15C6004608A7004508A60043
:101A10004408A5004308A4006430F7000030F80033
:101A20005008F900FA01F91BFA030A168A15E6268E
:101A30000A128A15770883120313C70001300310B6
:101A4000C70DFF3E031D1F2D0310470D7D3E840073
:101A50000A168A110A200A128A15C8000A168A1163
:101A60000A200A128A15C9000A168A110A200A12C7
:101A70008A15CA000A168A110A200A128A15CB0092
:101A80004B08AB004A08AA004908A9004808A8006A
:101A90000A128A15A2210A128A1583120313270833
:101AA000CF002608CE002508CD002408CC000A303F
:101AB000F0000030F1005008F200F301F21BF303D4
:101AC0000A168A15B0250A128A15700883120313A4
:101AD000C20001300310C20DFF3E031D6A2D03102A
:101AE000420D353E84000A168A110A200A128A1510
:101AF000C3000A168A110A200A128A15C4000A169F
:101B00008A110A200A128A15C5000A168A110A20AB
:101B10000A128A15C6004608A7004508A600440810
:101B2000A5004308A4004F08AB004E08AA004D08CA
:101B3000A9004C08A8000A128A15A22183120313D7
:101B40002708C1002608C0002508BF002408BE00E1
:101B500008005008803A753E031C342E0A30F0000D
:101B60000030F1005008F200F301F21BF3030A16F3
:101B70008A15B0250A128A15700883120313C20051
:101B800001300310C20DFF3E031DC12D0310420D95
:101B9000353E84000A168A110A200A128A15C300EB
:101BA0000A168A110A200A128A15C4000A168A1116
:101BB0000A200A128A15C5000A168A110A200A127A
:101BC0008A15C6004608A7004508A6004408A500D7
:101BD0004308A4000A30F7000030F8005008F9006C
:101BE000FA01F91BFA030A168A15E6260A128A1563
:101BF000770883120313C70001300310C70DFF3E9F
:101C0000031DFD2D0310470D593E84000A168A114D
:101C10000A200A128A15C8000A168A110A200A1216
:101C20008A15C9000A168A110A200A128A15CA00E2
:101C30000A168A110A200A128A15CB004B08AB003B
:101C40004A08AA004908A9004808A8000A128A15EB
:101C5000A221831203132708C1002608C00025080B
:101C6000BF002408BE0008005008C2000130031065
:101C7000C20DFF3E031D372E0310420D353E84007A
:101C80000A168A110A200A128A15C3000A168A1136
:101C90000A200A128A15C4000A168A110A200A129A
:101CA0008A15C5000A168A110A20C6004608C10016
:101CB0004508C0004408BF004308BE0008005008A3
:101CC000803A123E031C4A2F0A30F7000030F80019
:101CD0005008F200F301F21BF3036430F00000300F
:101CE000F1000A168A15B0250A128A157108FA0041
:101CF0007008F9000A168A15E6260A128A1577086E
:101D000083120313C20001300310C20DFF3E031DF6
:101D1000842E0310420D253E84000A168A110A20E3
:101D20000A128A15C3000A168A110A200A128A1595
:101D3000C4000A168A110A200A128A15C5000A165A
:101D40008A110A200A128A15C6004608A70045080B
:101D5000A6004408A5004308A4006430F700003042
:101D6000F8005008F900FA01F91BFA030A168A155F
:101D7000E6260A128A15770883120313C70001307A
:101D80000310C70DFF3E031DC02E0310470D493E33
:101D900084000A168A110A200A128A15C8000A1637
:101DA0008A110A200A128A15C9000A168A110A2005
:101DB0000A128A15CA000A168A110A200A128A15FE
:101DC000CB004B08AB004A08AA004908A900480804
:101DD000A8000A128A15A2210A128A158312031377
:101DE0002708CF002608CE002508CD002408CC0007
:101DF0000A30F0000030F1005008F200F301F21B4D
:101E0000F3030A168A15B0250A128A157008831280
:101E10000313C20001300310C20DFF3E031D0B2F40
:101E20000310420D013E84000A168A110A200A128C
:101E30008A15C3000A168A110A200A128A15C400DC
:101E40000A168A110A200A128A15C5000A168A1172
:101E50000A200A128A15C6004608A7004508A600EF
:101E60004408A5004308A4004F08AB004E08AA0090
:101E70004D08A9004C08A8000A128A15A221831255
:101E800003132708C1002608C0002508BF00240846
:101E9000BE0008005008803A753E031CD52F0A305A
:101EA000F0000030F1005008F200F301F21BF303E0
:101EB0000A168A15B0250A128A15700883120313B0
:101EC000C20001300310C20DFF3E031D622F03103C
:101ED000420D013E84000A168A110A200A128A1550
:101EE000C3000A168A110A200A128A15C4000A16AB
:101EF0008A110A200A128A15C5000A168A110A20B8
:101F00000A128A15C6004608A7004508A60044081C
:101F1000A5004308A4000A30F7000030F80050087C
:101F2000F900FA01F91BFA030A168A15E6260A12C5
:101F30008A15770883120313C70001300310C70DF9
:101F4000FF3E031D9E2F0310470D253E84000A16F9
:101F50008A110A200A128A15C8000A168A110A2054
:101F60000A128A15C9000A168A110A200A128A154D
:101F7000CA000A168A110A200A128A15CB004B08D9
:101F8000AB004A08AA004908A9004808A8000A129C
:101F90008A15A221831203132708C1002608C00056
:101FA0002508BF002408BE0008005008C200013008
:101FB0000310C20DFF3E031DD82F0310420D013E3A
:101FC00084000A168A110A200A128A15C3000A160A
:101FD0008A110A200A128A15C4000A168A110A20D8
:101FE0000A128A15C5000A168A110A20C600460878
:101FF000C1004508C0004408BF004308BE000800F7
:10200000FF1B0A2883137F1883170008840A03190B
:10201000FF0A080010308A000408840A820700348E
:102020000034003480343F340034003420344134F0
:1020300000340034C8344234003400347A34443438
:10204000003440341C34463400345034C3344734F4
:1020500000342434743449348034963418344B3486
:102060002034BC34BE344C3428346B346E344E349B
:10207000F934023415345034EC347834AD346034EF
:10208000CA34F234493471340034003480343F347B
:10209000CD34CC34CC343D340A34D73423343C34BE
:1020A0006F34123483343A341734B734D13438347B
:1020B000AC34C53427343734BD3437348634353402
:1020C0009534BF34D63433347734CC342B34323473
:1020D0005F34703489343034FF34E634DB342E34EA
:1020E0000834E5343C341E3460344234A2340D34B8
:1020F00001340034003400340A3400340034003435
:102100006434003400340034E834033400340034E0
:102110001034273400340034A034863401340034C1
:10212000403442340F3400348034963498340034D0
:102130000034E134F53405340034CA349A343B3485
:10214000573465346C3463346F346D346534203403
:102150006D346F3474346834653472346634753475
:1021600063346B3465347234733400344134443432
:102170004334203452346534733475346C347434DD
:102180000034413420343D34203425346634003466
:10219E0000300A168A150D230A168A1101300A1606
:1021AE008A150D230800031083120313530D540DCB
:1021BE00D5005508DB005B08031DEE280030D40067
:1021CE000030D3000030D2000030D100080051089A
:1021DE00D5005208D6005308D7005408D8001F3037
:1021EE000310D80CD70CD60CD50CFF3E031DF728C8
:1021FE005508D9005908DA00D317FF30D105FF3042
:10220E00D205FF30D3050030D4059630DB02DB1F3C
:10221E0025295B08803A973E031CE5280130031000
:10222E00D40CD30CD20CD10CFF3E031D1629013059
:10223E00D5005508DB0703193829152920305B0214
:10224E000318E5285B08031938290130D50003105F
:10225E00D10DD20DD30DD40DD50B2E290130DB02AD
:10226E0029295A0803190800D109D209D309D4091A
:10227E00D10A0319D20A0319D30A0319D40A080082
:10228E0000307005F80000307105F90080307205DD
:10229E00FA007F307305FB007B087A04790478041A
:1022AE00031D61290030F3000030F2000030F10010
:1022BE000030F00000307405F80000307505F900AC
:1022CE0080307605FA007F307705FB007B087A04B4
:1022DE0079047804031D7B290030F7000030F600E6
:1022EE000030F5000030F400F31FA1290030F80093
:1022FE000030F9000030FA008030FB007008F80260
:10230E007108031C710F8C298D29F9027208031CA8
:10231E00720F92299329FA027308031C730F9829DE
:10232E009929FB027B08F3007A08F2007908F10084
:10233E007808F000F71FC7290030F8000030F900C8
:10234E000030FA008030FB007408F8027508031C98
:10235E00750FB229B329F9027608031C760FB82936
:10236E00B929FA027708031C770FBE29BF29FB0291
:10237E007B08F7007A08F6007908F5007808F40073
:10238E008030F3068030F70677087302031D0800CD
:10239E0076087202031D080075087102031D0800FD
:1023AE00740870020800F8007808031DF31FEF2967
:1023BE007009FA007109FB007209FC007309FD0037
:1023CE00FA0A0319FB0A0319FC0A0319FD0AF72975
:1023DE007308FD007208FC007108FB007008FA001B
:1023EE007308720471047004031D062A0030F30092
:1023FE000030F2000030F1000030F000080096309E
:10240E00F4007408F900FE307D050319372A0130F7
:10241E00F4007408F90701300310FD0CFC0CFB0CE2
:10242E00FA0CFF3E031D132A0A2A0130F400740829
:10243E00F9070130FA07003003180130FB070030AE
:10244E0003180130FC07003003180130FD0701307E
:10245E000310FD0CFC0CFB0CFA0CFF3E031D2F2A87
:10246E00FF307D0503194B2A1C2A02307902031C0A
:10247E004D2A0130F9020130F4000310FA0DFB0D64
:10248E00FC0DFD0DF40B442AFC1F3C2A7918572A2B
:10249E00FF30FA05FF30FB057F30FC05FF30FD05F0
:1024AE000310F90C7908F400F501F601F701183064
:1024BE000310F40DF50DF60DF70DFF3E031D5F2A0B
:1024CE007408FA047508FB047608FC047708FD040A
:1024DE007808031DF31F742AFD177D08F3007C088E
:1024EE00F2007B08F1007A08F00008007008F8008E
:1024FE007108F9007208FA000310790D7A0DFB00CD
:10250E007B0883120313A5002508031D972A0030AC
:10251E00F3000030F2000030F1000030F00008004F
:10252E007408F8007508F9007608FA000310790DA2
:10253E007A0DFB007B08A400240803198E2AF117DC
:10254E00FF30F005FF30F1050030F205F517FF30D2
:10255E00F405FF30F5050030F6050030A30000301D
:10256E00A2000030A1000030A0007F30A5029830FC
:10257E002407F8007808A5021830F8007808A4009F
:10258E000130F8000310A00DA10DA20DA30DF80B44
:10259E00C92A76087202031DDA2A75087102031D14
:1025AE00DA2A74087002031CE72A7408F002750810
:1025BE00031C750FF1027608031C760AF202201432
:1025CE0001300310F00DF10DF20DFF3E031DE82A50
:1025DE000130A402031DC72AA51F0A2B2508803A25
:1025EE00973E031C8E2A01300310A30CA20CA10CE3
:1025FE00A00CFF3E031DFB2A0130F8007808A5074A
:10260E0003191D2BFA2A1830250203188E2A2508C5
:10261E0003191D2B0130F8000310A00DA10DA20D02
:10262E00A30DF80B132B0130A5020E2B2308F3007C
:10263E002208F2002108F1002008F0000800031023
:10264E00720D730DF800780883120313A500250888
:10265E00031D3A2B0030F3000030F2000030F10081
:10266E000030F00008000310760D770DF8007808A2
:10267E00A40024080319312BF217FF30F005FF30A8
:10268E00F105FF30F2050030F305F617FF30F405C3
:10269E00FF30F505FF30F6050030F7050030A300DA
:1026AE000030A2000030A1000030A0007F30A50253
:1026BE00A0302407F8007808A5022030F80078082A
:1026CE00A4000130F8000310A00DA10DA20DA30D62
:1026DE00F80B6A2B77087302031D7F2B76087202A4
:1026EE00031D7F2B75087102031D7F2B740870026A
:1026FE00031C902B7408F0027508031C750FF10271
:10270E007608031C760FF2027708031C770FF3028C
:10271E0020140130F8000310F00DF10DF20DF30D41
:10272E00F80B922B0130A402031D682BA51FB42BAE
:10273E002508803A9F3E031C312B01300310A30C59
:10274E00A20CA10CA00CFF3E031DA52B0130F8001E
:10275E007808A5070319C72BA42B203025020318D0
:10276E00312B25080319C72B0130F8000310A00DDB
:10277E00A10DA20DA30DF80BBD2B0130A502B82B98
:10278E002308F3002208F2002108F1002008F000CF
:10279E00080083120313D1006E305102031CE22C89
:1027AE003F30A7000030A6000030A5000030A40086
:1027BE006430F6000030F7005108C200C301420831
:1027CE00F8004308F9000A168A1562240A168A11BF
:1027DE00760883120313C40001300310C40DFF3EAC
:1027EE00031DF42B0310440D7D3E84000A168A113E
:1027FE000A200A168A11C5000A168A110A200A161C
:10280E008A11C6000A168A110A200A168A11C700F2
:10281E000A168A110A200A168A11C8004808AB0047
:10282E004708AA004608A9004508A8000A128A15FA
:10283E00A2210A168A11831203132708D000260834
:10284E00CF002508CE002408CD000A30F600003057
:10285E00F7005108C200C3014208F2004308F3001A
:10286E006430F0000030F1000A168A15C1230A16F2
:10287E008A117108F9007008F8000A168A15622488
:10288E000A168A11760883120313C400013003104E
:10289E00C40DFF3E031D4E2C0310440D593E840003
:1028AE000A168A110A200A168A11C5000A168A11FA
:1028BE000A200A168A11C6000A168A110A200A165A
:1028CE008A11C7000A168A110A200A168A11C80030
:1028DE004808A7004708A6004608A5004508A4001A
:1028EE005008AB004F08AA004E08A9004D08A800DA
:1028FE000A128A15A2210A168A11831203132708B7
:10290E00CC002608CB002508CA002408C9000A30CE
:10291E00F0000030F1005108C200C3014208F2007D
:10292E004308F3000A168A15C1230A168A11700885
:10293E0083120313C40001300310C40DFF3E031DA8
:10294E00A32C0310440D353E84000A168A110A206A
:10295E000A168A11C5000A168A110A200A168A1149
:10296E00C6000A168A110A200A168A11C7000A160C
:10297E008A110A200A168A11C8004808A7004708BB
:10298E00A6004608A5004508A4004C08AB004B085D
:10299E00AA004A08A9004908A8000A128A15A2210D
:1029AE00831203132708C1002608C0002508BF00A4
:1029BE002408BE0008000B305102031C8F2D3F303F
:1029CE00A7000030A6000030A5000030A4000A3099
:1029DE00F6000030F7005108C200C3014208F800AB
:1029EE004308F9000A168A1562240A168A11760817
:1029FE0083120313C40001300310C40DFF3E031DE8
:102A0E00032D0310440D593E84000A168A110A2024
:102A1E000A168A11C5000A168A110A200A168A1188
:102A2E00C6000A168A110A200A168A11C7000A164B
:102A3E008A110A200A168A11C8004808AB004708F6
:102A4E00AA004608A9004508A8000A128A15A22164
:102A5E000A168A11831203132708D0002608CF0006
:102A6E002508CE002408CD000A30F0000030F10019
:102A7E005108C200C3014208F2004308F3000A16CF
:102A8E008A15C1230A168A11700883120313C40013
:102A9E0001300310C40DFF3E031D502D0310440DD5
:102AAE00353E84000A168A110A200A168A11C500BC
:102ABE000A168A110A200A168A11C6000A168A11E7
:102ACE000A200A168A11C7000A168A110A200A1647
:102ADE008A11C8004808A7004708A6004608A500A6
:102AEE004508A4005008AB004F08AA004E08A900E4
:102AFE004D08A8000A128A15A22183120313270873
:102B0E00C1002608C0002508BF002408BE0008002A
:102B1E003F30A7000030A6000030A5000030A40012
:102B2E005108C20001300310C20DFF3E031D9A2D45
:102B3E000310420D353E84000A168A110A200A1629
:102B4E008A11C3000A168A110A200A168A11C400B5
:102B5E000A168A110A200A168A11C5000A168A1147
:102B6E000A200A168A11C6004608AB004508AA00BC
:102B7E004408A9004308A8000A128A15A22183124C
:102B8E0003132708C1002608C0002508BF0024082B
:102B9E00BE0008008312031355088039DA005A0864
:102BAE00E2005508DA005A07DB005B08E400D41B8C
:102BBE00641464080319F12D640A031DEE2D003010
:102BCE00D5000030D4000030D3000030D200D4172E
:102BDE00D501F92D0030D5000030D4000030D300DF
:102BEE000030D20059088039DA005A08E300630831
:102BFE006206031D62175908DA005A07DB005B08EC
:102C0E00E300D81B6314630803191B2E630A031D0C
:102C1E00182E0030D9000030D8000030D700003018
:102C2E00D600D817D901232E0030D9000030D80095
:102C3E000030D7000030D600640863020318692EF6
:102C4E00621F2D2E8030DA005A08E2066408DA0080
:102C5E005A08E5006308DA005A08E4006508DA004D
:102C6E005A08E3005208DA005A08E5005608DA005E
:102C7E005A08D2006508DA005A08D6005308DA005E
:102C8E005A08E5005708DA005A08D3006508DA003A
:102C9E005A08D7005408DA005A08E5005808DA0036
:102CAE005A08D4006508DA005A08D8005508DA0028
:102CBE005A08E5005908DA005A08D5006508DA0006
:102CCE005A08D900E5016308DA00DB015B08DD0074
:102CDE0064085A02DC00031CDD035D08803AFF0025
:102CEE0080307F02031D7D2E1A305C02031CB62E2F
:102CFE008312031355085404530452040319892EE6
:102D0E0001308A2E0030DA005A08E5000030D50076
:102D1E000030D4000030D3000030D2006308DA0057
:102D2E005A08E400BC2E651CA52E6508DA000310B7
:102D3E005A0C0138DB005B08E500A72E0310E50CEA
:102D4E005218E5170130DA00550DD50CD40CD30C02
:102D5E00D20CDA0BAB2E0130DA005A08E4078312DC
:102D6E00031363086402031C9A2E621BFD2E640873
:102D7E00031DCA2E0030D5000030D4000030D30021
:102D8E000030D20008005608D20757080311031866
:102D9E00013E031DD307580803110318013E031DFE
:102DAE00D407590803110318013E031DD507551CFE
:102DBE009F2F651CEB2E6508DA0003105A0C0138A4
:102DCE00DB005B08E500ED2E0310E50C5218E5174D
:102DDE000130DA00550DD50CD40CD30CD20CDA0B15
:102DEE00F12E0130DA005A08E4079F2F5508803A79
:102DFE00FF005908803A7F02031D0F2F5808540216
:102E0E00031D0F2F57085302031D0F2F5608520292
:102E1E000318672FFF30DA00FF30DB00FF30DC00D5
:102E2E00FF30DD005608DE005708DF005808E000CE
:102E3E005908E1005208DE025308031C530F282FD5
:102E4E00292FDF025408031C540F2E2F2F2FE002C0
:102E5E005508031C550F342F352FE1025E08DA0793
:102E6E005F0803185F0F3C2F3D2FDB076008031828
:102E7E00600F422F432FDC0761080318610ADD073C
:102E8E005D08D5005C08D4005B08D3005A08D20058
:102E9E008030DA005A08E206E509E50A6508031DE6
:102EAE00752F0130D207003003180130D3070030E0
:102EBE0003180130D407003003180130D507752FE1
:102ECE005608D2025708031C570FD3025808031C8A
:102EDE00580FD4025908031C590FD5025508540433
:102EEE0053045204031D9D2F6508031D9D2F0030B2
:102EFE00D5000030D4000030D3000030D2000800DE
:102F0E000130DA000310D20DD30DD40DD50DDA0B2E
:102F1E00892FE51B5214651C962F0314972F03104F
:102F2E00E50D640803199D2F0130E402D41F872F8D
:102F3E00E301E51FAA2F65087F3903195218A82F40
:102F4E00AA2FE301E30A63080319DD2F0130D2072C
:102F5E00003003180130D307003003180130D407B6
:102F6E00003003180130D507551CDD2F5208DA004A
:102F7E005308DB005408DC005508DD000130DE008C
:102F8E005D0DDD0CDC0CDB0CDA0CDE0BC72F5D08E7
:102F9E00D5005C08D4005B08D3005A08D200640A3E
:102FAE000319DD2F0130DA005A08E407640A031D05
:102FBE006408031DED2F0030D5000030D400003022
:102FCE00D3000030D20064080319E201641CF12F13
:102FDE00D417F52F7F30DA005A08D4056408DA00CA
:102FEE0003105A0CDB005B08D500E21F0800D51752
:022FFE000800C9
:103574007308720471047004031908008030F306A0
:10358400080000300A168A15F3220A168A1501303B
:103594000A168A15F3220800831203131F179F17B4
:1035A4009F151F14831603139F179F150800F0001F
:1035B400701CE02A831203130816E32A83120313F0
:1035C4000812F01CE72A8816E82A8812701DEC2AD3
:1035D4000817ED2A0813F01DF12A8817080088132C
:1035E4000800F30083120313081173080A168A15DE
:1035F400D9220A168A158312031388151A30F20089
:10360400F830F100F10B042BF20B042B00008312B1
:1036140003138811080083160317B90083120313D8
:1036240008118316031739080A168A1593230A16F4
:103634008A158312031388151A3083160317B800EA
:10364400F730B700B70B242BB80B242B292B83128C
:10365400031388110800F401F501701C372B72085C
:10366400F4070318F50A7308F50701300310F20D87
:10367400F30DFF3E031D382B01300310F10CF00C49
:10368400FF3E031D3F2B70087104031D2F2B75088B
:10369400F1007408F0000800803083120313E90677
:1036A4006D08D5006C08D4006B08D3006A08D200FA
:1036B4006908D9006808D8006708D7006608D600EA
:1036C4000A168A11D125831203135508E9005408F8
:1036D400E8005308E7005208E6000800F800F40187
:1036E400F5017008F200F3017208F6007308F700A0
:1036F400781C822B7608F4070318F50A7708F50777
:1037040001300310F60DF70DFF3E031D832B03104C
:10371400F80C7808031D7A2B7508F1007408F00082
:10372400080083160317B600361C9C2B8312031360
:1037340008169F2B83120313081283160317B61C53
:10374400A72B831203138816AA2B83120313881240
:1037540083160317361DB22B831203130817B52BD8
:1037640083120313081383160317B61DBD2B83128C
:1037740003138817080083120313881308007008C2
:1037840071040319EE2BF501F50AF11BD52B013059
:103794000310F00DF10DFF3E031DCA2B0130F400A0
:1037A4007408F507C72B71087302031DDB2B70081F
:1037B4007202031CE32B7008F2027108031CF3036A
:1037C400F30201300310F10CF00CFF3E031DE42B57
:1037D4000130F502031DD52B7308F1007208F000C7
:1037E40008008316031388018312031388018316C8
:1037F400031386018312031386010A168A159F2771
:103804000A168A150A128A11F1270A168A150A1647
:103814008A15CE220A168A150A168A11CF200A168C
:103824008A1583160317BA01BA0A01300A168A15D3
:1038340096260A168A15913083160317BB0080302A
:10384400BC000A168A1547260A168A15282CF40085
:1038540074080F39F1007108F2007408F039F100AE
:103864007108F3008312031308157308F100043080
:103874000310F10CFF3E031D3A2C71080A168A1539
:10388400D9220A168A158312031388154230F100CF
:10389400F10B4A2C000083120313881172080A16D4
:1038A4008A15D9220A168A15831203138815423001
:1038B400F100F10B5B2C0000831203138811080044
:1038C400FB01FC01760877040319992CFD01FD0A1C
:1038D400F71B782C01300310F60DF70DFF3E031D86
:1038E4006D2C0130FA007A08FD076A2C01300310B0
:1038F400FB0DFC0DFF3E031D792C77087902031D97
:10390400852C76087802031C8E2C7608F80277083A
:10391400031CF903F9027B1401300310F70CF60CB5
:10392400FF3E031D8F2C0130FD02031D782C7C0803
:10393400F7007B08F6000800FA01FB017A08750716
:10394400F8007608F7000318F70AFA1BF70377085C
:10395400F900790883120313FF00780884000A161B
:103964008A1100200A168A15003A031908007A08F9
:103974007507F8007608F7000318F70AFA1BF7032F
:103984007708F900790883120313FF00780884008C
:103994000A168A1100200A168A150A168A1529247D
:1039A4000A168A150130FA070318FB0A0030FB07D0
:1039B400A02C83160317BA003A080F39B70037084A
:1039C400B8003A08F039B7003708B9008312031376
:1039D4000815831603173908B70004300310B70C11
:1039E400FF3E031DF02C37080A168A1593230A1686
:1039F4008A15831203138815413083160317B70001
:103A0400B70B022D052D8312031388118316031798
:103A140038080A168A1593230A168A158312031383
:103A24008815413083160317B700B70B172D1A2DCD
:103A3400831203138811080000307005F800003069
:103A44007105F90080307205FA007F307305FB00C0
:103A54007B087A0479047804031D382D0030F300C0
:103A64000030F2000030F1000030F0000030740546
:103A7400F80000307505F90080307605FA007F30D3
:103A84007705FB007B087A0479047804031D522D22
:103A94000030F7000030F6000030F5000030F4008C
:103AA40077087306031D602D76087206031D602DCA
:103AB40075087106031D602D740870060319642DC2
:103AC4000310080003140800F7007703031D8B2D6F
:103AD40074087F3EF5007508FA007A08F500043092
:103AE4000310F50CFF3E031D722D7508F6007608D1
:103AF400F8007A080F39F5007508F90078080A16F5
:103B04008A15F3220A168A1579080A168A15F322E9
:103B1400080002307706031D08007408BF3EF50054
:103B24007508FA007A08F50004300310F50CFF3E1E
:103B3400031D972D7508F6007608F8007A080F39EA
:103B4400F5007508F90078080A168A15F3220A1692
:103B54008A1579080A168A15F3220800F601F31F5C
:103B6400BA2DF209F309F20A0319F30AF601F60A67
:103B7400F11FC12DF009F109F00A0319F10A7008C7
:103B840071040319EE2DF501F50AF11BD52D013051
:103B94000310F00DF10DFF3E031DCA2D0130F4009A
:103BA4007408F507C72D71087302031DDB2D700817
:103BB4007202031CE32D7008F2027108031CF30364
:103BC400F30201300310F10CF00CFF3E031DE42D51
:103BD4000130F502031DD52D76080319F62DF209DF
:103BE400F309F20A0319F30A7308F1007208F000EA
:103BF4000800730872047104700403193E2EF9015D
:103C0400F90AF31B132E0130F8000310F00DF10D27
:103C1400F20DF30DF80B072E0130F8007808F907C0
:103C2400032E73087702031D212E72087602031DEA
:103C3400212E71087502031D212E70087402031CC5
:103C4400312E7008F4027108031C710FF50272081A
:103C5400031C720FF6027308031C730FF702013082
:103C64000310F30CF20CF10CF00CFF3E031D322E8A
:103C74000130F902031D132E7708F3007608F200D1
:103C84007508F1007408F000080083160317C001DA
:103C9400C10140083B07BE003C08BD000318BD0A33
:103CA400C01BBD03831603173D08BF003F088312E2
:103CB4000313FF00831603173E08840083120313C3
:103CC4000A168A1100200A168A15003A03190800F8
:103CD4008316031740083B07BE003C08BD000318C9
:103CE400BD0AC01BBD03831603173D08BF003F0870
:103CF40083120313FF00831603173E088400831204
:103D040003130A168A1100200A168A150A168A1540
:103D1400DB240A168A15013083160317C00703181B
:103D2400C10A0030C1074B2E83160317BD003D03A3
:103D3400031DBF2E3A087F3EBB003B08C00040086D
:103D4400BB0004300310BB0CFF3E031DA42E3B0834
:103D5400BC003C08BE0040080F39BB003B08BF0054
:103D64003E080A168A150D230A168A1583160317A8
:103D74003F080A168A150D23080002303D06031D6C
:103D840008003A08BF3EBB003B08C0004008BB0027
:103D940004300310BB0CFF3E031DCB2E3B08BC00BC
:103DA4003C08BE0040080F39BB003B08BF003E087A
:103DB4000A168A150D230A168A15831603173F0857
:103DC4000A168A150D23080083120313A101F81F94
:103DD400F22EF709F809F70A0319F80AA101A10A52
:103DE400FA1FFD2EF909FA09F90A0319FA0A013032
:103DF400FB007B08A106A201A3017708780403193C
:103E0400342FA001A00AF81B132F01300310F70D63
:103E1400F80DFF3E031D082F0130FB007B08A007AF
:103E2400052F01300310A20DA30DFF3E031D142F17
:103E340078087A02031D202F77087902031C292FA2
:103E44007708F9027808031CFA03FA0222140130F5
:103E54000310F80CF70CFF3E031D2A2F0130A002BB
:103E6400031D132F210803193C2FA209A309A20A39
:103E74000319A30A2308F8002208F70008000030F9
:103E8400FC000030FB000030FA000030F900730839
:103E94007204710470040319962FFD01FD0AF31BCB
:103EA400612F0130F8000310F00DF10DF20DF30D48
:103EB400F80B552F0130F8007808FD07512F013019
:103EC400F8000310F90DFA0DFB0DFC0DF80B632F30
:103ED40073087702031D782F72087602031D782F6A
:103EE40071087502031D782F70087402031C892F52
:103EF4007008F4027108031C710FF5027208031CA8
:103F0400720FF6027308031C730FF7027914013061
:103F14000310F30CF20CF10CF00CFF3E031D8A2F7E
:103F24000130FD02031D612F7C08F3007B08F200C1
:103F34007A08F1007908F000080000300A168A15A2
:103F440093230A168A15823083160317BB00DD30CB
:103F5400BA00BA0BAB2FBB0BAB2F03300A168A1572
:103F64000D230A168A15213083160317BB007530FA
:103F7400BA00BA0BBB2FBB0BBB2FC02F03300A16E2
:103F84008A150D230A168A15483083160317BB00B9
:103F94006B30BA00BA0BCC2FBB0BCC2FD12F033014
:103FA4000A168A150D230A168A1502300A168A156E
:103FB4000D230A168A1502300A168A150D230A16CD
:103FC4008A1508300A168A150D230A168A15003038
:103FD4000A168A150D230A168A150C300A168A1534
:103FE4000D230A168A1500300A168A150D230A169F
:0C3FF4008A1506300A168A150D230800F5
:00000001FF
