:040000008A15002835
:10000800FF00030E8301CA000A08C9008A010B1DFC
:100018001328C00A0319C10A0B11043081004908CA
:0C0028008A004A0E8300FF0E7F0E0900C4
:0E003400533083120313FD00FD0B1E2808003D
:0C004200000000000000000000000800AA
:10004E00243083120313FC00B530FD00FD0B2D2868
:0A005E00FC0B2D2800000000080034
:1000680083120313D11B3A2888133B288817511B86
:100078003F28081340280817D11A44288812452811
:100088008816511A492808124A28081642184E2874
:1000980008154F280811881521208811D1195628CC
:1000A80088135728881751195B2808135C280817E4
:1000B800D1186028881261288816511865280812F6
:1000C8006628081642186A2808156B28081188152A
:1000D80021208811421C7228272073281A20080022
:1000E8007408F8027508031C750FF9027608031CDA
:1000F800760FFA027708031C770FFB02F30D07301F
:10010800FC00730DF80DF90DFA0DFB0D7408731C46
:100118009B28F8027508031C750FF9027608031C62
:10012800760FFA027708031C770FFB02A828F80756
:1001380075080318750FF90776080318760FFA077C
:1001480077080318770FFB07F30DFC0B8528720D52
:10015800F80DF90DFA0DFB0D7408731CC128F8028F
:100168007508031C750FF9027608031C760FFA024E
:100178007708031C770FFB02CE28F80775080318C9
:10018800750FF90776080318760FFA07770803182A
:10019800770FFB07F20D0730FC00720DF80DF90D13
:1001A800FA0DFB0D7408721CE728F8027508031C89
:1001B800750FF9027608031C760FFA027708031CFC
:1001C800770FFB02F428F80775080318750FF9076D
:1001D80076080318760FFA0777080318770FFB07D6
:1001E800F20DFC0BD128710DF80DF90DFA0DFB0D70
:1001F8007408721C0D29F8027508031C750FF902A2
:100208007608031C760FFA027708031C770FFB02A7
:100218001A29F80775080318750FF90776080318DF
:10022800760FFA0777080318770FFB07F10D0730E9
:10023800FC00710DF80DF90DFA0DFB0D7408711C19
:100248003329F8027508031C750FF9027608031C98
:10025800760FFA027708031C770FFB024029F8078C
:1002680075080318750FF90776080318760FFA074B
:1002780077080318770FFB07F10DFC0B1D29700D8C
:10028800F80DF90DFA0DFB0D7408711C5929F802C7
:100298007508031C750FF9027608031C760FFA021D
:1002A8007708031C770FFB026629F80775080318FF
:1002B800750FF90776080318760FFA0777080318F9
:1002C800770FFB07F00D0730FC00700DF80DF90DE6
:1002D800FA0DFB0D7408701C7F29F8027508031CC1
:1002E800750FF9027608031C760FFA027708031CCB
:1002F800770FFB028C29F80775080318750FF907A3
:1003080076080318760FFA0777080318770FFB07A4
:10031800F00DFC0B692970189F297408F8077508F7
:100328000318750FF90776080318760FFA07770888
:080338000318770FFB07080012
:100340008312031342105008D100342042140800D5
:10035000FB09FA09F909F809F80A0319F90A031956
:08036000FA0A0319FB0A080068
:08036800FA1FF2130030080037
:100370007B15FB1FC2290130F300F201F101F001EE
:08038000FA0DF20CFF30080039
:0E038800F201F101F001F801F301003008006C
:10039600FB14FB1FD529FF30F300F200F100F0003B
:0803A600FA0DF20CFF30080013
:0E03AE008312031344088A00430882000800EB
:1003BC00A1017208031DF3297108F2007008F10005
:1003CC00F001A1157208031DF3297108F200F10167
:1003DC00A111211672080319012A2108F302031D29
:1003EC00031C052A0310F21B092AF00DF10DF20D66
:1003FC00F30BF929052A0130FC00C4210C2A023028
:0E040C00FC00B8210C2A0430FC00B4210800CA
:06041A00FB15FF30080095
:10042000222A803083120313CC00352AC030CC003E
:10043000352A9430CC00352AD430CC00352A80308F
:10044000CC00352A831203134C08013A0319112AF0
:100450004C08023A0319162A4C08033A0319192AC0
:100460004C08043A03191C2A1F2A4D03F0004C08BB
:10047000F0077008CC0042147008D10034204210FC
:0A0480004E08D10034204214080099
:10048A00831203137408003A031D602A7508003AA0
:10049A00031D602A7608003A031D602A7708003A8D
:1004AA00031D602AFF30F000FF30F100FF30F20038
:1004BA007F30F300F92A83120313FC01F71BFC0AAD
:1004CA00FD01FB01FA01F901F801730872047104D4
:1004DA0070040319F42A73087706A000A01BFD090B
:1004EA00F71F822AF409F509F609F709F40A03192C
:1004FA00F50A0319F60A0319F70AF31F8F2AF009F6
:10050A00F109F209F309F00A0319F10A0319F20AC7
:10051A000319F30A73087704A000A01BB02A7420F9
:10052A00FC1BCD2AFD1FF42AF009F109F209F3098F
:10053A00F00A0319F10A0319F20A0319F30AF8096E
:10054A00F909FA09FB09F80A0319F90A0319FA0A57
:10055A000319FB0AF42AF71FC72AF31BC12A7308D7
:10056A00FB007208FA007108F9007008F800F3013C
:10057A00F201F101F001972AF301F201F101F00110
:10058A00F00A0034F309F209F109F009FC17942A78
:10059A00F80A0319F90A0319FA0A0319FB0A740873
:1005AA007802031D972A75087902031D972A76088F
:1005BA007A02031D972A77087B02031D972AFB01FB
:1005CA00FA01F901F801F00A0319F10A0319F20A0A
:1005DA000319F30AF31F972AA0012016FF34A0017A
:0A05EA007C1CF82AA821003E08003E
:1005F4000C2B803083120313CC001F2BC030CC0093
:100604001F2B9430CC001F2BD430CC001F2B8030F8
:10061400CC001F2B831203134C08013A0319FB2A45
:100624004C08023A0319002B4C08033A0319032B14
:100634004C08043A0319062B092B4D03F0004C080F
:10064400F0077008CC007008D10034204210CF01AC
:100654004F084E07840000080319382B4F084E0733
:1006640084000008D000A021CF0A2A2B42140800DD
:100674007C18702BFC18412B7C198F2B3A2BA10171
:100684007208031D612B7108F2007008F1007808EC
:10069400F000F801A1157208031D612B7108F20026
:1006A4007008F100F001A11121167208031D612BDD
:1006B4007108F200F101A11572080319832B2108B6
:1006C400F302031D031C872B0310F21B702BF80D80
:1006D400F00DF10DF20DF30B672B872B7B1B701CB8
:1006E4008B2BF81F8B2BF00A0319F10A0319F20A5A
:1006F400031D8B2BF20CF10CF00CF30A03198F2B56
:100704008B2B0130FC00C421922B0230FC00B82159
:10071400922B0430FC00B421922B0830FC00CB2136
:0407240000000800C9
:100728007B14FB1F9F2BF201FA1FFF30F200F10030
:0A073800F000FA0DF20CFF3008008B
:1007420083120313FB017308031D77080319F82BA7
:1007520072087606FA007708F3077E30031CB52B81
:10076200F3020318FB2BB82BF302031CFE2B7208B7
:10077200F8007108FC007008FD00F817F617031066
:10078200F201F101F0011830A1007D1CD22B740896
:10079200F00775080318750FF10776080318760F2E
:1007A200F207F20CF10CF00CF80CFC0CFD0C03102F
:1007B200A10BC62BF21BE22BF80DF00DF10DF20D81
:1007C200F3037B1B701CF42BF81FF42BF00A0319A4
:1007D200F10A0319F20A031DF42BF20CF10CF00CCE
:1007E200F30A0319FB2BFA1FF2130030002C01301D
:1007F200C421002C0230CB21002C0430B82100008F
:020802000800EC
:10080400103083120313F4002730F500F601F701CA
:100814004508F0004608F1004708F2004808F300D4
:1008240045223030F0073908840070088000390A06
:10083400CB00E830F4000330F500F601F701450879
:10084400F0004608F1004708F2004808F30045228A
:100854000A30F400F501F601F70145227808F000AA
:100864007908F1007A08F2007B08F3003030F007D1
:100874004B0884007008800002303907CB006430D4
:10088400F400F501F601F7014508F0004608F1000F
:100894004708F2004808F30045220A30F400F50145
:1008A400F601F70145227808F0007908F1007A088A
:1008B400F2007B08F3003030F0074B088400700826
:1008C400800003303907CB000A30F400F501F6014B
:1008D400F7014508F0004608F1004708F20048080F
:1008E400F30045220A30F400F501F601F701452230
:1008F4007808F0007908F1007A08F2007B08F30028
:100904003030F0074B088400700880000430390749
:10091400CB000A30F400F501F601F7014508F000B8
:100924004608F1004708F2004808F3004522780819
:10093400F0007908F1007A08F2007B08F300303007
:10094400F0074B088400700880000230CC000130AE
:10095400CD002230CE00FA220230CC000730CD0088
:10096400390884000008CE0010220230CC00083080
:10097400CD002E30CE0010220230CC000930CD0044
:10098400390A84000008CE0010220230CC000A305C
:10099400CD000230390784000008CE001022023056
:1009A400CC000B30CD000330390784000008CE00A2
:1009B40010220230CC000C30CD0004303907840002
:1009C4000008CE0010220230CC000E30CD0056308C
:0609D400CE001022080015
:1009DA00831203137408003A031D082D7508003AA0
:1009EA00031D082D7608003A031D082D7708003AE2
:1009FA00031D082DFF30F000FF30F1007F30F200B8
:100A0A00FF30F300A32D8312031377080319972DE0
:100A1A00730803199A2D720876068039FA00F217BC
:100A2A00F617A1017208F8007108FC007008FD00B1
:100A3A007408FD027508031C750FFC027608031C76
:100A4A00760FF802F801FC01FD01031C332D031097
:100A5A00F20CF10CF00CF80C0130A1007708F3024B
:100A6A00031C3D2D7E302107F30703189D2D422DCF
:100A7A007E302107F307031CA02D1830FA07FD0D5D
:100A8A00FC0DF80DF00DF10DF20DA10D7408F00238
:100A9A007508031C750FF1027608031C760FF20223
:100AAA00760DA104211C5B2D7D14662D7408F007B8
:100ABA0075080318750FF10776080318760AF20706
:100ACA007D10FA031F307A05031D442D7B1B7D1C04
:100ADA008D2D0310F00DF10DF20DA10D7408F00229
:100AEA007508031C750FF1027608031C760FF202D3
:100AFA00760D21040139FD070318FC0A0319F80AC7
:100B0A00031D8D2DF80CFC0CFD0CF30A03199D2D09
:100B1A00FA1FF8137808F2007C08F1007D08F0004B
:100B2A000030A22D01300D22A22D0230C421A22DA7
:0E0B3A000430CB21A22D0830B82100000800A5
:100B480083120313FB01FC01F801730803191C2E1F
:100B58007208FA00F2179E30F302F31F0C2EF30905
:100B6800F30A08307302031CE12DF300F80D700836
:100B7800F8007108F0007208F100F2010830730201
:100B8800031CE12DF300F80D7008F8007108F0005F
:100B9800F10108307302031CE12DF300F80D700811
:100BA800F800F00108307302031CE12DF300F80D82
:100BB800F8017308031D0310EB2D73080319EB2DBF
:100BC8000310F20CF10CF00CF80CF30BE42D7B1B6A
:100BD800781CF92D031CF92DF80A0319F00A0319DA
:100BE800F10A0319F20AF21B192EFA1F1C2EF20938
:100BF800F109F009F809F80A0319F00A0319F10ACA
:100C08000319F20A1C2EF201F101F001F8011C2E61
:100C18007B14FB1F1F2EF201FA1F1F2EF200F1009A
:100C2800F000F800FA0DF20C1F2E0130FC00212E06
:100C38000030FC00212EFF30FC00FC080319252E93
:100C480094237208F3007108F2007008F100780824
:040C5800F0000800A0
:100C5C00831203137008F8007108F000F101F2011F
:100C6C00F301FB01FC019630F300FA017008F1006E
:0C0C7C007808F000F801F201DE21080009
:100C88008316031388110811081288120813881391
:100C98008312881108118813081388120812272054
:100CA8002720272088160816881521208811272034
:100CB80088152120881127208815212088112720B0
:100CC80008128815212088112720881521208811CD
:100CD800881288178815212088112720881308165C
:100CE80088152120881108128815212088112720AD
:100CF8008815212088110816881521208811272099
:100D080008128815212088118817081788160816D0
:0C0D1800881521208811272042140800B3
:100D24008312031372087606A100F801F90173080F
:100D34007702031CB52E7708FD007308F7007D08C1
:100D4400F3007608FD007208F6007D08F2007508CD
:100D5400FD007108F5007D08F1007408FD007008BD
:100D6400F4007D08F000770803192E2F7208FA00AA
:100D7400F217F61777087302F7000319E82E083004
:100D84007702031CDE2EF7007408F9007508F400DE
:100D94007608F500F60108307702031CDE2EF70012
:100DA4007408F9007508F400F50108307702031C93
:100DB400DE2E7A08F2002E2F77080319E82E03108E
:100DC400F60CF50CF40CF90CF70BE12EA11FF52E23
:100DD400F909F409F509F609F90A0319F40A0319DA
:100DE400F50A0319F60A7908F80774080318740F4A
:100DF400F00775080318750FF10776080318760FC6
:100E0400F207A11B0E2F031C1E2FF20CF10CF00C89
:100E1400F80CF30F1E2F2A2F0318222FF809F009BC
:100E2400F109F209F80A0319F00A0319F10A03197E
:100E3400F20A8030FA06262F0130FC003A23302FC4
:100E44000230FC003A23302F0430FC00DE21302F26
:100E54000830FC00CB21302F0030FC0000000800DB
:100E6400D7218A110A128000840AC30A0319C40A0A
:080E7400F003031D322F0800FA
:101000004E3083120313A2006130A3007030A4009D
:101010006F30A5006E30A6003A30A700A80141301D
:10102000A9004430AA002030AB006B30AC006F3018
:10103000AD006E30AE007630AF006530B00072307B
:10104000B1007A30B2006930B3006A30B400613068
:10105000B500B601B701B8013A30B9003030BA0076
:101060003030BB003030BC003030BD003030BE000E
:10107000BF011C3083160317880089012C3003132D
:101080008500A0309F00913083129F0007308316A7
:101090008100043083128100831687018312870147
:1010A0008B170B178B160B11C001C1018A11442637
:1010B0008A150130D1008A1134208A150C30D100F4
:1010C0008A1134208A150130CC000230CD0029303D
:1010D000CE008A11FA228A1500304106031D7228BB
:1010E0005D304006031DC4289F18BD281E08F1006E
:1010F000F00183161E08F0070318F10A7008831226
:10110000B7007108B8008A112E268A150030F40045
:101110000030F5002030F6008030F7008A11A1235E
:101120008A150030F4004030F5001C30F6008C3099
:10113000F7008A11A1238A150030F400C030F500B1
:101140007F30F6008830F7008A11ED248A15FF30D1
:10115000F4005130F5004330F6008D30F7008A116D
:1011600092268A158A11A4258A157008C50071086F
:10117000C6007208C7007308C8008709C001C10112
:0C1180009F148A1102248A156C28C528CF
:04400E00F22F000786
:00000001FF
