:02000000432B90
:0E000600533083120313FD00FD0B0728080082
:10001400243083120313FC00B530FD00FD0B1028BF
:0A002400FC0B10280000000008008B
:0C002E00000000000000000000000800BE
:0E003A00F201F101F001F801F30100300800BD
:1000480083120313B61B2A2888132B288817361BFC
:100058002F28081330280817B61A3428881235288C
:100068008816361A392808123A2808162A183E28F7
:1000780008153F280811881517208811B619462831
:1000880088134728881736194B2808134C2808174F
:10009800B61850288812512888163618552808127C
:1000A800562808162A185A2808155B280811881592
:1000B800172088112A1C62280A20632803200800B8
:0800C800FA1FF21300300800DA
:1000D0007B15FB1F72280130F300F201F101F001E2
:0800E000FA0DF20CFF300800DC
:1000E800243083120313FD00FD0B7828000008005C
:1000F800831203132A103508B60024202A14080096
:0E0108008312031330088A002F0882000800BB
:100116007B14FB1F9628F201FA1FFF30F200F10054
:0A012600F000FA0DF20CFF300800A3
:10013000A0017208031DAD287108F2007008F100DB
:10014000F001A0157208031DAD287108F200F1013D
:10015000A011201672080319BB282008F302031D02
:10016000031CBF280310F21BC328F00DF10DF20D84
:10017000F30BB328BF280130FC001D20C628023035
:0E018000FC006820C6280430FC006420080043
:10018E00FB14FB1FD128FF30F300F200F100F0004A
:08019E00FA0DF20CFF3008001D
:0601A600FB15FF3008000C
:1001AC0083120313FB017308031D770803192D2910
:1001BC0072087606FA007708F3077E30031CEA28EB
:1001CC00F30203183029ED28F302031C33297208BB
:1001DC00F8007108FC007008FD00F817F617031002
:1001EC00F201F101F0011830A0007D1C0729740800
:1001FC00F00775080318750FF10776080318760FCA
:10020C00F207F20CF10CF00CF80CFC0CFD0C0310CA
:10021C00A00BFB28F21B1729F80DF00DF10DF20DB8
:10022C00F3037B1B701C2929F81F2929F00A0319D9
:10023C00F10A0319F20A031D2929F20CF10CF00C36
:10024C00F30A03193029FA1FF21300303529013053
:10025C001D2035290230C7203529043068200000C4
:02026C00080088
:10026E00C330831203139F052108F000F00D7010A8
:10027E00F00D701070089F0474209F149F1C492964
:10028E00000045291E08F100F00183161E08F00437
:06029E000030F10408002D
:1002A400831203137408003A031D6D297508003A7C
:1002B400031D6D297608003A031D6D297708003A5D
:1002C400031D6D29FF30F000FF30F1007F30F20094
:1002D400FF30F300082A8312031377080319FC295B
:1002E40073080319FF29720876068039FA00F21799
:1002F400F617A0017208F8007108FC007008FD00F0
:100304007408FD027508031C750FFC027608031CB3
:10031400760FF802F801FC01FD01031C9829031073
:10032400F20CF10CF00CF80C0130A0007708F30289
:10033400031CA2297E302007F3070318022AA729E9
:100344007E302007F307031C052A1830FA07FD0D39
:10035400FC0DF80DF00DF10DF20DA00D7408F00276
:100364007508031C750FF1027608031C760FF20260
:10037400760DA004201CC0297D14CB297408F00735
:1003840075080318750FF10776080318760AF20743
:100394007D10FA031F307A05031DA9297B1B7D1CE0
:1003A400F2290310F00DF10DF20DA00D7408F00206
:1003B4007508031C750FF1027608031C760FF20210
:1003C400760D20040139FD070318FC0A0319F80A05
:1003D400031DF229F80CFC0CFD0CF30A0319022A84
:1003E400FA1FF8137808F2007C08F1007D08F00089
:1003F4000030072A0130D320072A02301D20072AA3
:0E0404000430C720072A0830682000000800D6
:1004120083120313FB01FC01F80173080319812AFB
:100422007208FA00F2179E30F302F31F712AF309E1
:10043200F30A08307302031C462AF300F80D700811
:10044200F8007108F0007208F100F201083073023E
:10045200031C462AF300F80D7008F8007108F0003A
:10046200F10108307302031C462AF300F80D7008EC
:10047200F800F00108307302031C462AF300F80D5D
:10048200F8017308031D0310502A73080319502A38
:100492000310F20CF10CF00CF80CF30B492A7B1B45
:1004A200781C5E2A031C5E2AF80A0319F00A031953
:1004B200F10A0319F20AF21B7E2AFA1F812AF209B3
:1004C200F109F009F809F80A0319F00A0319F10A07
:1004D2000319F20A812AF201F101F001F801812ADD
:1004E2007B14FB1F842AF201FA1F842AF200F10016
:1004F200F000F800FA0DF20C842A0130FC00862A82
:100502000030FC00862AFF30FC00FC0803198A2A0E
:100512008B207208F3007108F2007008F10078086D
:04052200F0000800DD
:1005260083160313881108110812881208138813FA
:1005360083128811081188130813881208120A20DA
:100546000A200A20881608168815172088110A20FE
:100556008815172088110A208815172088110A2067
:1005660008128815172088110A2088151720881167
:10057600881288178815172088110A2088130816EC
:1005860088151720881108128815172088110A2047
:1005960088151720881108168815172088110A2033
:1005A6000812881517208811881708178816081644
:0C05B6008815172088110A202A1408005C
:1005C200F32A803083120313B100062BC030B1002E
:1005D200062B9430B100062BD430B100062B8030AC
:1005E200B100062B831203133108013A0319E22AE0
:1005F2003108023A0319E72A3108033A0319EA2AB1
:100602003108043A0319ED2AF02A3203F0003108C6
:10061200F0077008B1007008B60024202A10B40157
:10062200340833078400000803191F2B34083307EA
:1006320084000008B5007C20B40A112B2A1408009B
:10064200831203137008F8007108F000F101F2013F
:10065200F301FB01FC019630F300FA017008F1008E
:0C0662007808F000F801F2019820080070
:10066E0084208A110A128000840AAF0A0319B00A84
:08067E00F003031D372B0800F7
:10068600413083120313A2004430A3004330A40078
:10069600A501A601A701A801A90193220130B60070
:1006A60024200C30B60024200130B1000830B200FE
:1006B6002230B300E122831687010C3083128700B3
:1006C600023083160317880003138914831228083F
:1006D6008700A80A0319A90A0630A1003721700865
:1006E6008312A6007108A70021230030F400003011
:1006F600F5002030F6008130F700D6200030F400F7
:100706000030F5000030F6008930F700522109224A
:100716007008AB007108AC007208AD007308AE003B
:100726000D30FB00AF30FC00B630FD00FD0B992B01
:0E073600FC0B992BFB0B992B0000692BA12BC0
:04400E00F22F000786
:00000001FF
