:020000040000FA
:060000000A128A11162805
:10000800FE00030E83160313C4000408C5000A0883
:10001800C600831203137F0883160313C7000A164A
:100028008A111B2B0A128A11192883160313EA0155
:10003800EB01EC01ED0183010A168A15152E8316D2
:100048000313BD00A130A5002508AE000130A007AC
:10005800FF30200784000A168A1100200A128A112C
:10006800A5002508C200420803198A2D253042063A
:100078000319402842087F2DAF01B00145283015EB
:100088005F280130A007FF30200784000A168A1174
:1000980000200A128A11C200A500A6012608003A0B
:1000A800031957282A282508003A03198A2D663A81
:1000B800031943282A2800302F05A50007303005EA
:1000C800A600250826040319742D0630B100003057
:1000D800B2002E08840083130008BE00840A0008BA
:1000E800BF00840A0008C000840A0008C100043068
:1000F800A5002508AE074108F3004008F2003F08B4
:10010800F1003E08F0000030F7000030F600003043
:10011800F5000030F4000A168A1188220A128A11A2
:100128000318B328831603134108F3004008F200AC
:100138003F08F1003E08F0000A168A15B1250A1298
:100148008A11730883160313C1007208C00071086E
:10015800BF007008BE000330AF040030B00483163F
:100168000313B701B8014108F3004008F2003F0843
:10017800F1003E08F0000030F7000030F6000030D3
:10018800F5000030F4000A168A156E270A128A1143
:100198000318B729031083160313400D410D823E3F
:1001A800B700FF3003180030B800FF30B707031856
:1001B800B80AFF30B8070330F0000030F100380803
:1001C800F3003708F2000A168A156F260A128A11F8
:1001D800710883160313B8007008B7000A30F700D7
:1001E8000030F8003808FA003708F9000A168A11B2
:1001F80001210A128A11780883160313B8007708B8
:10020800B700B81F0D29FF30B7070318B80AFF3029
:10021800B8073703FF3A0A128A15B7240A128A1157
:1002280083120313430883160313BC0083120313BA
:10023800420883160313BB00831203134108831675
:100248000313BA0083120313400883160313B9007B
:10025800410883120313A90083160313400883126D
:100268000313A800831603133F0883120313A70080
:10027800831603133E0883120313A6008316031381
:100288003C0883120313AD00831603133B08831243
:100298000313AC00831603133A0883120313AB004D
:1002A80083160313390883120313AA000A128A1546
:1002B800A2210A128A118312031329088316031331
:1002C800BC0083120313280883160313BB00831290
:1002D8000313270883160313BA008312031326088F
:1002E80083160313B9003C08F3003B08F2003A08F0
:1002F800F1003908F0003F30F7008030F600003098
:10030800F5000030F4000A168A1188220A128A11B0
:1003180003189629FF3083160313B7070318B80A82
:10032800FF30B629831603133C08F3003B08F2009C
:100338003A08F1003908F0004130F7002030F600A3
:100348000030F5000030F4000A168A1188220A12DB
:100358008A11031CB729013083160313B707031842
:10036800B80A0030B80706300A168A11FF250A12A3
:100378008A11831203134308D7004208D6004108A4
:10038800D5004008D40083160313410883120313D1
:10039800DB0083160313400883120313DA00831665
:1003A80003133F0883120313D900831603133E086F
:1003B80083120313D8000A128A118F250A128A1190
:1003C80083120313570883160313C1008312031300
:1003D800560883160313C0008312031355088316A7
:1003E8000313BF0083120313540883160313BE00BC
:1003F8003808803AFF0080307F02031D052A0A3042
:1004080037020318522A831603134108F3004008E1
:10041800F2003F08F1003E08F0000030F70000301D
:10042800F6000030F5000030F4000A168A156E2731
:100438000A128A110318BB2A831603134108831270
:100448000313D60083160313400883120313D50041
:10045800831603133F0883120313D4008316031370
:100468003E0883120313D3000A168A111B220A12AC
:100478008A11831203135608550454045304031DA8
:10048800BB2A831603133808803AFF0080307F02A6
:10049800031D502A02303702031CBB2A831603139C
:1004A8003C08F3003B08F2003A08F1003908F00074
:1004B8004030F7008930F6007030F5005F30F40006
:1004C8000A168A1188220A128A1103186D2AF7302F
:1004D8006E2AF83083160313B7070318B80AFF30DB
:1004E800B80737080A128A15B7240A128A11831224
:1004F8000313430883160313BC0083120313420833
:1005080083160313BB0083120313410883160313D6
:10051800BA0083120313400883160313B900410875
:10052800F3004008F2003F08F1003E08F0003C08E4
:10053800F7003B08F6003A08F5003908F4000A12FB
:100548008A15F8200A128A11730883160313B60055
:100558007208B5007108B4007008B3000030C1001B
:100568000030C0000030BF000030BE003F2B8316B3
:100578000313410883120313D6008316031340089C
:1005880083120313D500831603133F088312031342
:10059800D400831603133E0883120313D3000A16EC
:1005A8008A111B220A128A11831203135608831612
:1005B8000313B60083120313550883160313B500FB
:1005C80083120313540883160313B400831203130E
:1005D800530883160313B3003608F5003508F400F2
:1005E8003408F3003308F20000300A168A11B723E2
:1005F8000A128A11750883120313EB007408EA00C3
:100608007308E9007208E80083160313410883128F
:100618000313EF0083160313400883120313EE003D
:10062800831603133F0883120313ED008316031385
:100638003E0883120313EC000A168A1590260A1244
:100648008A11831203136B0883160313C1008312E4
:1006580003136A0883160313C0008312031369087F
:1006680083160313BF00831203136808831603134A
:10067800BE00B701B801C201C20A4208A500013094
:100688000310A50DFF3E031D442B0310250D693EE5
:1006980084000A168A1100200A128A11A6000A1676
:1006A8008A1100200A128A11A7000A168A1100204E
:1006B8000A128A11A8000A168A1100200A128A1141
:1006C800A90029083602031D732B28083502031DCB
:1006D800732B27083402031D732B26083302031CCF
:1006E8007D2B0130A5002508C2070A304206031DEC
:1006F800412B03302F05A50000303005A600250842
:1007080026040319922B2D30A5003D0884002508E6
:10071800831380000130A5002508BD070130C202FF
:10072800420A0319072C4208A50001300310A50D41
:10073800FF3E031D9A2B0310250D693E84000A16FF
:100748008A1100200A128A11F0000A168A11002064
:100758000A128A11F1000A168A1100200A128A1157
:10076800F2000A168A1100200A128A11F3003608CC
:10077800F7003508F6003408F5003308F4000A16C7
:100788008A115C210A128A11730883160313BC00AC
:100798007208BB007108BA007008B9000030F30095
:1007A8000030F2000030F1000A30F0003C08F70099
:1007B8003B08F6003A08F5003908F4000A128A15D1
:1007C80003200A128A11730883160313BC007208E7
:1007D800BB007108BA007008B9003908303E882B90
:1007E800303083160313A5003D08840025088313C1
:1007F80080000130A5002508BD07FF30B7070318A2
:10080800B80AFF30B8073808803AFF0080307F0206
:10081800031D102C013037020318F42B8316031321
:100828003208803AFF0080307F02031D1D2C0930FA
:100838003102031C232C083083160313262C83163D
:1008480003133108A5002508C2004208A500A60127
:100858002508B1022608031CB203B2024208031994
:10086800402C2E30A5003D08840025088313800005
:100878000130A5002508BD0742080A128A15B724C9
:100888000A128A1183120313430883160313AD0057
:1008980083120313420883160313AC008312031355
:1008A800410883160313AB00831203134008831611
:1008B8000313AA002D0883120313AD008316031334
:1008C8002C0883120313AC00831603132B0883121E
:1008D8000313AB00831603132A0883120313AA0019
:1008E80083160313410883120313A9008316031305
:1008F800400883120313A800831603133F088312CA
:100908000313A700831603133E0883120313A600DC
:100918000A128A15A2210A128A11831203132908BE
:10092800D6002808D5002708D4002608D3000A16C0
:100938008A111B220A128A1183120313560883167E
:100948000313B60083120313550883160313B50067
:1009580083120313540883160313B400831203137A
:10096800530883160313B3000130C202420A031965
:100978006F2D4208A50001300310A50DFF3E031D91
:10098800C02C0310250D693E84000A168A11002028
:100998000A128A11F0000A168A1100200A128A1116
:1009A800F1000A168A1100200A128A11F2000A16AA
:1009B8008A1100200A128A11F3003608F700350858
:1009C800F6003408F5003308F4000A168A115C2191
:1009D8000A128A11730883160313BC007208BB003D
:1009E8007108BA007008B9000030F3000030F20056
:1009F8000030F1000A30F0003C08F7003B08F60030
:100A08003A08F5003908F4000A128A1503200A1278
:100A18008A11730883160313BC007208BB0071089F
:100A2800BA007008B9003908303EA5003D088400B6
:100A38002508831380000130A5002508BD0742085A
:100A4800A50001300310A50DFF3E031D262D031040
:100A5800250D693E84000A168A1100200A128A119F
:100A6800F0000A168A1100200A128A11F1000A16EB
:100A78008A1100200A128A11F2000A168A1100202F
:100A88000A128A11F3003608F7003508F600340810
:100A9800F5003308F4000A128A1503200A128A1195
:100AA800730883160313B6007208B5007108B40002
:100AB8007008B72C3030A5003D0884002508831342
:100AC80080000130A5002508BD07FF30B1070318D5
:100AD800B20AFF30B2073108320403192A285E2D02
:100AE80003302F05A50000303005A6002508260490
:100AF80003192A282D30A5003D08840025088313F2
:100B080080000130A5002508BD072A283D0884007B
:100B18008313800108008312031357088039DC000F
:100B28005C08E4005708DC005C07DD005D08E600AF
:100B3800D61B661466080319AF2D660A031DAC2D73
:100B48000030D7000030D6000030D5000030D40087
:100B5800D617D701B72D0030D7000030D6000030A7
:100B6800D5000030D4005B088039DC005C08E50063
:100B780065086406031D64175B08DC005C07DD007C
:100B88005D08E500DA1B651465080319D92D650AA7
:100B9800031DD62D0030DB000030DA000030D9000C
:100BA8000030D800DA17DB01E12D0030DB0000301F
:100BB800DA000030D9000030D80066086502031852
:100BC800272E641FEB2D8030DC005C08E4066608E5
:100BD800DC005C08E7006508DC005C08E6006708E4
:100BE800DC005C08E5005408DC005C08E7005808F5
:100BF800DC005C08D4006708DC005C08D8005508F5
:100C0800DC005C08E7005908DC005C08D5006708D0
:100C1800DC005C08D9005608DC005C08E7005A08CC
:100C2800DC005C08D6006708DC005C08DA005708BE
:100C3800DC005C08E7005B08DC005C08D70067089C
:100C4800DC005C08DB00E7016508DC00DD015D080D
:100C5800DF0066085C02DE00031CDF035F08803AE1
:100C6800FF0080307F02031D3B2E1A305E02031CFA
:100C7800742E831203135708560455045404031999
:100C8800472E0130482E0030DC005C08E7000030B9
:100C9800D7000030D6000030D5000030D4006508F9
:100CA800DC005C08E6007A2E671C632E6708DC000F
:100CB80003105C0C0138DD005D08E700652E0310A9
:100CC800E70C5418E7170130DC00570DD70CD60C89
:100CD800D50CD40CDC0B692E0130DC005C08E6076F
:100CE8008312031365086602031C582E641BBB2E6F
:100CF8006608031D882E0030D7000030D60000306B
:100D0800D5000030D40008005808D407590803114A
:100D18000318013E031DD5075A0803110318013EA5
:100D2800031DD6075B0803110318013E031DD707EF
:100D3800571C5D2F671CA92E6708DC0003105C0C8C
:100D48000138DD005D08E700AB2E0310E70C5418EE
:100D5800E7170130DC00570DD70CD60CD50CD40C96
:100D6800DC0BAF2E0130DC005C08E6075D2F57086E
:100D7800803AFF005B08803A7F02031DCD2E5A0897
:100D88005602031DCD2E59085502031DCD2E5808B5
:100D980054020318252FFF30DC00FF30DD00FF3040
:100DA800DE00FF30DF005808E0005908E1005A086B
:100DB800E2005B08E3005408E0025508031C550FE5
:100DC800E62EE72EE1025608031C560FEC2EED2EF8
:100DD800E2025708031C570FF22EF32EE3026008B5
:100DE800DC0761080318610FFA2EFB2EDD07620885
:100DF8000318620F002F012FDE0763080318630A28
:100E0800DF075F08D7005E08D6005D08D5005C08DC
:100E1800D4008030DC005C08E406E709E70A6708CC
:100E2800031D332F0130D407003003180130D507D4
:100E3800003003180130D607003003180130D707F7
:100E4800332F5808D4025908031C590FD5025A08E1
:100E5800031C5A0FD6025B08031C5B0FD702570806
:100E6800560455045404031D5B2F6708031D5B2FAC
:100E78000030D7000030D6000030D5000030D40054
:100E880008000130DC000310D40DD50DD60DD70DA8
:100E9800DC0B472FE71B5414671C542F0314552FE2
:100EA8000310E70D660803195B2F0130E602D61F11
:100EB800452FE501E71F682F67087F390319541884
:100EC800662F682FE501E50A650803199B2F013095
:100ED800D407003003180130D5070030031801305B
:100EE800D607003003180130D707571C9B2F54082A
:100EF800DC005508DD005608DE005708DF00013029
:100F0800E0005F0DDF0CDE0CDD0CDC0CE00B852F48
:100F18005F08D7005E08D6005D08D5005C08D400DD
:100F2800660A03199B2F0130DC005C08E607660A95
:100F3800031D6608031DAB2F0030D7000030D60014
:100F48000030D5000030D40066080319E401661C9F
:100F5800AF2FD617B32F7F30DC005C08D6056608A4
:100F6800DC0003105C0CDD005D08D700E41F0800FE
:100F7800D7170800FB01FC01760877040319F52F41
:100F8800FD01FD0AF71BD42F01300310F60DF70DF4
:100F9800FF3E031DC92F0130FA007A08FD07C62F4E
:100FA80001300310FB0DFC0DFF3E031DD52F770804
:100FB8007902031DE12F76087802031CEA2F7608D0
:100FC800F8027708031CF903F9027B1401300310B7
:100FD800F70CF60CFF3E031DEB2F0130FD02031D3D
:0C0FE800D42F7C08F7007B08F6000800FE
:10100600730872047104700403194628F901F90A79
:10101600F31B1B280130F8000310F00DF10DF20D43
:10102600F30DF80B0F280130F8007808F9070B28A4
:1010360073087702031D292872087602031D2928E2
:1010460071087502031D292870087402031C3928CB
:101056007008F4027108031C710FF5027208031C74
:10106600720FF6027308031C730FF70201300310A8
:10107600F30CF20CF10CF00CFF3E031D3A28013084
:10108600F902031D1B287708F3007608F20075089D
:10109600F1007408F00008007008F8007108F90003
:1010A6007208FA000310790D7A0DFB007B08831293
:1010B6000313A5002508031D69280030F30000303E
:1010C600F2000030F1000030F00008007408F8006B
:1010D6007508F9007608FA000310790D7A0DFB0001
:1010E6007B08A400240803196028F117FF30F005D7
:1010F600FF30F1050030F205F517FF30F405FF303B
:10110600F5050030F6050030A3000030A2000030DF
:10111600A1000030A0007F30A50298302407F80017
:101126007808A5021830F8007808A4000130F80005
:101136000310A00DA10DA20DA30DF80B9B28760898
:101146007202031DAC2875087102031DAC287408D1
:101156007002031CB9287408F0027508031C750F89
:10116600F1027608031C760AF202201401300310FD
:10117600F00DF10DF20DFF3E031DBA280130A40259
:10118600031D9928A51FDC282508803A973E031CD5
:10119600602801300310A30CA20CA10CA00CFF3E8A
:1011A600031DCD280130F8007808A5070319EF289C
:1011B600CC28183025020318602825080319EF28C3
:1011C6000130F8000310A00DA10DA20DA30DF80B20
:1011D600E5280130A502E0282308F3002208F200E2
:1011E6002108F1002008F00008000310720D730DAD
:1011F600F800780883120313A5002508031D0C299F
:101206000030F3000030F2000030F1000030F00052
:1012160008000310760D770DF8007808A40024085E
:1012260003190329F217FF30F005FF30F105FF30EF
:10123600F2050030F305F617FF30F405FF30F5052B
:10124600FF30F6050030F7050030A3000030A2009D
:101256000030A1000030A0007F30A502A030240796
:10126600F8007808A5022030F8007808A4000130BC
:10127600F8000310A00DA10DA20DA30DF80B3C293B
:1012860077087302031D512976087202031D51293E
:1012960075087102031D512974087002031C622926
:1012A6007408F0027508031C750FF1027608031C1A
:1012B600760FF2027708031C770FF3022014013031
:1012C600F8000310F00DF10DF20DF30DF80B642983
:1012D6000130A402031D3A29A51F86292508803A54
:1012E6009F3E031C032901300310A30CA20CA10C82
:1012F600A00CFF3E031D77290130F8007808A507EA
:10130600031999297629203025020318032925086F
:10131600031999290130F8000310A00DA10DA20DA3
:10132600A30DF80B8F290130A5028A292308F300A3
:101336002208F2002108F1002008F00008008312BC
:10134600031329088039AE002E08B3002908AE0021
:101356002E07AF002F08B900A81B39143908031946
:10136600C129390A031DBF290030A9000030A80091
:101376000030A7000030A600A817C9290030A90030
:101386000030A8000030A7000030A6002D088039E4
:10139600AE002E08B3062D08AE002E07AF002F08AC
:1013A600B800AC1B381438080319E629380A031D9F
:1013B600E4290030AD000030AC000030AB00003056
:1013C600AA00AC17EE290030AD000030AC000030AA
:1013D600AB000030AA003808031D3908031DFC299C
:1013E6000030A9000030A8000030A7000030A60099
:1013F60008002608AE002E08F0002C080A168A15EA
:10140600B2260A128A15710883120313BF007008E8
:10141600BE003E08AE00AF01B001B1013108B70011
:101426003008B6002F08B5002E08B4003F08AE00FD
:10143600AF01B001B1013108BD003008BC002F0872
:10144600BB002E08BA002708AE002E08F0002B08B5
:101456000A168A15B2260A128A1571088312031310
:10146600BF007008BE003E08AE00AF01B001B1017A
:101476002E08B4072F0803110318013E031DB507F4
:10148600300803110318013E031DB6073108031186
:101496000318013E031DB7073F08AE00AF01B001B8
:1014A600B1012E08BA072F0803110318013E031DC8
:1014B600BB07300803110318013E031DBC073108A2
:1014C60003110318013E031DBD072808AE002E08B0
:1014D600F0002A080A168A15B2260A128A15710819
:1014E60083120313BF007008BE003E08AE00AF01B2
:1014F600B001B1012E08B4072F0803110318013EED
:10150600031DB507300803110318013E031DB60776
:10151600310803110318013E031DB7073F08AE004B
:10152600AF01B001B1012E08BA072F080311031845
:10153600013E031DBB07300803110318013E031DBE
:10154600BC07310803110318013E031DBD0708300F
:10155600AE000310B40DB50DB60DB70DAE0BAC2A2B
:101566002708AE002E08F0002A080A168A15B226A9
:101576000A128A15710883120313BF007008BE0091
:101586003E08AE003F08AF00B001B1012E08B40717
:101596002F0803110318013E031DB5073008031178
:1015A6000318013E031DB607310803110318013E57
:1015B600031DB7072608AE002E08F0002B080A16F2
:1015C6008A15B2260A128A15710883120313BF0000
:1015D6007008BE003E08AE003F08AF00B001B10182
:1015E6002E08B4072F0803110318013E031DB50783
:1015F600300803110318013E031DB6073108031115
:101606000318013E031DB7070830AE000310B40DE2
:10161600B50DB60DB70DAE0B092B2608AE002E087C
:10162600F0002A080A168A15B2260A128A157108C7
:1016360083120313BF007008BE003E08AE003F08C9
:10164600AF00B001B1012E08B4072F08031103182B
:10165600013E031DB507300803110318013E031DA3
:10166600B607310803110318013E031DB707270803
:10167600AE002E08F0002C080A168A15B2260A12A9
:101686008A15710883120313BF007008BE003E0856
:10169600AE003F08AF00B001B1012E08BA072F080F
:1016A60003110318013E031DBB073008031103187D
:1016B600013E031DBC07310803110318013E031D3B
:1016C600BD072808AE002E08F0002B080A168A155A
:1016D600B2260A128A15710883120313BF00700816
:1016E600BE003E08AE003F08AF00B001B1012E08B3
:1016F600BA072F0803110318013E031DBB07300864
:1017060003110318013E031DBC073108031103181A
:10171600013E031DBD072808AE002E08F0002C0868
:101726000A168A15B2260A128A157108831203133D
:10173600BF007008BE003E08AE003F08AF00B00113
:10174600B10108300310AE0DAF0DB00DB10DFF3E67
:10175600031DA52B2E08BA072F0803110318013EF7
:10176600031DBB07300803110318013E031DBC0708
:10177600310803110318013E031DBD073408AE00EE
:101786003508AF003608B0003708B100183003102E
:10179600B10CB00CAF0CAE0CFF3E031DCA2B2E08CD
:1017A600BA072F0803110318013E031DBB073008B3
:1017B60003110318013E031DBC073108031103186A
:1017C600013E031DBD070830AE000310B40DB50D74
:1017D600B60DB70DAE0BE82B39083807AE00AF01D2
:1017E600AF0D2E08823EBE002F080318013EFF3EB5
:1017F600BF00BC1B192C0130AE000310BA0DBB0D87
:10180600BC0DBD0DAE0B002CB71B3A140130AE005B
:101816000310B40DB50DB60DB70DAE0B0B2CFF3086
:10182600BE070318BF0AFF30BF07FC2BB801B71F5E
:10183600322CFF303405AE00FF303505AF00FF30E7
:101846003605B0007F303705B100310830042F046B
:101856002E0403193A18302C322CB801B80A38086D
:101866000319642C0130BA07003003180130BB0796
:10187600003003180130BC07003003180130BD07E3
:101886003D1C642C3A08AE003B08AF003C08B00093
:101896003D08B1000130B200310DB10CB00CAF0CF7
:1018A600AE0CB20B4F2C3108BD003008BC002F081F
:1018B600BB002E08BA000130BE070318BF0A00306D
:1018C600BF073F08803AFF0080307F02031D6D2C62
:1018D600FF303E02031C7A2C7F3083120313BD00B7
:1018E6008030BC000030BB000030BA00AA2C831246
:1018F60003133F08803AFF0080307F02031D852CCA
:1019060001303E020318932C003083120313BD00EE
:101916000030BC000030BB000030BA00B301AA2C76
:10192600831203133E08AE002E08B900FF30BA0535
:10193600FF30BB057F30BC050030BD053918BC172C
:101946003908AE0003102E0CAF002F08BD00330877
:10195600AE002E08BD043D08A9003C08A8003B08BF
:10196600A7003A08A600080083120313D200D21F6C
:101976005F2ED209D20A5208803A123E031CA92DC4
:101986000A30F7000030F8005208F200F301F21BAB
:10199600F3036430F0000030F1000A168A11B62015
:1019A6000A128A157108FA007008F9000A168A11D7
:1019B60001210A128A15770883120313C400013025
:1019C6000310C40DFF3E031DE32C0310440D593EC6
:1019D60084000A168A1100200A128A15C5000A1602
:1019E6008A1100200A128A15C6000A168A110020DA
:1019F6000A128A15C7000A168A1100200A128A15C9
:101A0600C8004808A9004708A8004608A7004508D6
:101A1600A6006430F7000030F8005208F900FA0119
:101A2600F91BFA030A168A1101210A128A15770888
:101A360083120313C90001300310C90DFF3E031DB5
:101A46001F2D0310490D7D3E84000A168A110020C1
:101A56000A128A15CA000A168A1100200A128A1565
:101A6600CB000A168A1100200A128A15CC000A1623
:101A76008A1100200A128A15CD004D08AD004C08C7
:101A8600AC004B08AB004A08AA000A128A15A2212C
:101A96000A128A15831203132908D1002808D000D8
:101AA6002708CF002608CE000A30F0000030F100EB
:101AB6005208F200F301F21BF3030A168A11B6204C
:101AC6000A128A15700883120313C400013003102A
:101AD600C40DFF3E031D6A2D0310440D353E8400E0
:101AE6000A168A1100200A128A15C5000A168A11DA
:101AF60000200A128A15C6000A168A1100200A1248
:101B06008A15C7000A168A1100200A128A15C8000B
:101B16004808A9004708A8004608A7004508A600E7
:101B26005108AD005008AC004F08AB004E08AA00A3
:101B36000A128A15A221831203132908C300280852
:101B4600C2002708C1002608C00008005208803AD3
:101B5600753E031C342E0A30F0000030F1005208A6
:101B6600F200F301F21BF3030A168A11B6200A12D9
:101B76008A15700883120313C40001300310C40DC4
:101B8600FF3E031DC12D0310440D353E84000A1689
:101B96008A1100200A128A15C5000A168A11002029
:101BA6000A128A15C6000A168A1100200A128A1518
:101BB600C7000A168A1100200A128A15C8004808AA
:101BC600A9004708A8004608A7004508A6000A304D
:101BD600F7000030F8005208F900FA01F91BFA0381
:101BE6000A168A1101210A128A157708831203132D
:101BF600C90001300310C90DFF3E031DFD2D031062
:101C0600490D593E84000A168A1100200A128A15C7
:101C1600CA000A168A1100200A128A15CB000A1673
:101C26008A1100200A128A15CC000A168A11002091
:101C36000A128A15CD004D08AD004C08AC004B08C1
:101C4600AB004A08AA000A128A15A22183120313BE
:101C56002908C3002808C2002708C1002608C000BA
:101C660008005208C40001300310C40DFF3E031DD6
:101C7600372E0310440D353E84000A168A110020C3
:101C86000A128A15C5000A168A1100200A128A1538
:101C9600C6000A168A1100200A128A15C7000A16FB
:101CA6008A110020C8004808C3004708C200460839
:101CB600C1004508C00008005208803A123E031CC5
:101CC6004A2F0A30F7000030F8005208F200F301FC
:101CD600F21BF3036430F0000030F1000A168A119B
:101CE600B6200A128A157108FA007008F9000A1659
:101CF6008A1101210A128A15770883120313C40078
:101D060001300310C40DFF3E031D842E0310440D45
:101D1600253E84000A168A1100200A128A15C5007B
:101D26000A168A1100200A128A15C6000A168A1196
:101D360000200A128A15C7000A168A1100200A1204
:101D46008A15C8004808A9004708A8004608A70041
:101D56004508A6006430F7000030F8005208F90084
:101D6600FA01F91BFA030A168A1101210A128A15C9
:101D7600770883120313C90001300310C90DFF3E13
:101D8600031DC02E0310490D493E84000A168A1110
:101D960000200A128A15CA000A168A1100200A12A1
:101DA6008A15CB000A168A1100200A128A15CC0061
:101DB6000A168A1100200A128A15CD004D08AD00B8
:101DC6004C08AC004B08AB004A08AA000A128A1558
:101DD600A2210A128A15831203132908D1002808A2
:101DE600D0002708CF002608CE000A30F0000030C9
:101DF600F1005208F200F301F21BF3030A168A11EE
:101E0600B6200A128A15700883120313C400013023
:101E16000310C40DFF3E031D0B2F0310440D013E9E
:101E260084000A168A1100200A128A15C5000A16AD
:101E36008A1100200A128A15C6000A168A11002085
:101E46000A128A15C7000A168A1100200A128A1574
:101E5600C8004808A9004708A8004608A700450882
:101E6600A6005108AD005008AC004F08AB004E0864
:101E7600AA000A128A15A221831203132908C30095
:101E86002808C2002708C1002608C000080052081A
:101E9600803A753E031CD52F0A30F0000030F10061
:101EA6005208F200F301F21BF3030A168A11B62058
:101EB6000A128A15700883120313C4000130031036
:101EC600C40DFF3E031D622F0310440D013E840026
:101ED6000A168A1100200A128A15C5000A168A11E6
:101EE60000200A128A15C6000A168A1100200A1254
:101EF6008A15C7000A168A1100200A128A15C80018
:101F06004808A9004708A8004608A7004508A600F3
:101F16000A30F7000030F8005208F900FA01F91B00
:101F2600FA030A168A1101210A128A157708831202
:101F36000313C90001300310C90DFF3E031D9E2F78
:101F46000310490D253E84000A168A1100200A1244
:101F56008A15CA000A168A1100200A128A15CB00B1
:101F66000A168A1100200A128A15CC000A168A114E
:101F760000200A128A15CD004D08AD004C08AC00B1
:101F86004B08AB004A08AA000A128A15A22183123E
:101F960003132908C3002808C2002708C100260821
:101FA600C00008005208C40001300310C40DFF3EF3
:101FB600031DD82F0310440D013E84000A168A1112
:101FC60000200A128A15C5000A168A1100200A1274
:101FD6008A15C6000A168A1100200A128A15C70039
:101FE6000A168A110020C8004808C3004708C20024
:101FF6004608C1004508C000080010308A000408E1
:10200600840A820700340034003480343F340034BC
:1020160000342034413400340034C83442340034AF
:1020260000347A344434003440341C3446340034AA
:102036005034C3344734003424347434493480343F
:10204600963418344B342034BC34BE344C342834E3
:102056006B346E344E34F934023415345034EC3467
:102066007834AD346034CA34F234493471340034CF
:10207600003480343F34CD34CC34CC343D340A344F
:10208600D73423343C346F34123483343A3417341F
:10209600B734D1343834AC34C53427343734BD344E
:1020A6003734863435349534BF34D63433347734C4
:1020B600CC342B3432345F34703489343034FF34CA
:1020C600E634DB342E340834E5343C341E346034D4
:1020D6004234A2340D3401340034003400340A345E
:1020E6000034003400346434003400340034E834FE
:1020F6000334003400341034273400340034A03460
:10210600863401340034403442340F340034803491
:102116009634983400340034E134F5340534003410
:10212600CA349A343B34413420343D342034253487
:1021360066340034831203139F0180308316031321
:102146009F00080030308312031390000B308F007D
:10215600DC308E00831603130C148B170B178312B7
:10216600031310140800F601F31FC028F209F3093F
:10217600F20A0319F30AF601F60AF11FC728F00955
:10218600F109F00A0319F10A700871040319F42819
:10219600F501F50AF11BDB2801300310F00DF10DF6
:1021A600FF3E031DD0280130F4007408F507CD2842
:1021B60071087302031DE12870087202031CE928E6
:1021C6007008F2027108031CF303F30201300310D6
:1021D600F10CF00CFF3E031DEA280130F502031D49
:1021E600DB2876080319FC28F209F309F20A031919
:1021F600F30A7308F1007208F00008008312031353
:10220600A101F81F0D29F709F809F70A0319F80AB9
:10221600A101A10AFA1F1829F909FA09F90A0319ED
:10222600FA0A0130FB007B08A106A201A301770888
:10223600780403194F29A001A00AF81B2E290130A2
:102246000310F70DF80DFF3E031D23290130FB0097
:102256007B08A007202901300310A20DA30DFF3E25
:10226600031D2F2978087A02031D3B297708790276
:10227600031C44297708F9027808031CFA03FA02BA
:10228600221401300310F80CF70CFF3E031D4529FC
:102296000130A002031D2E29210803195729A2097E
:1022A600A309A20A0319A30A2308F8002208F700C3
:1022B60008000030FC000030FB000030FA0000305F
:1022C600F90073087204710470040319B129FD0141
:1022D600FD0AF31B7C290130F8000310F00DF10D07
:1022E600F20DF30DF80B70290130F8007808FD07A0
:1022F6006C290130F8000310F90DFA0DFB0DFC0DE9
:10230600F80B7E2973087702031D9329720876025B
:10231600031D932971087502031D93297008740221
:10232600031CA4297008F4027108031C710FF5023E
:102336007208031C720FF6027308031C730FF70270
:10234600791401300310F30CF20CF10CF00CFF3E83
:10235600031DA5290130FD02031D7C297C08F3001D
:102366007B08F2007A08F1007908F00008000030D6
:102376000A168A15D5260A168A118230831603177D
:102386009500DD309400940BC629950BC6290330C1
:102396000A168A154F260A168A1121308316031744
:1023A600950075309400940BD629950BD629DB2918
:1023B60003300A168A154F260A168A1148308316E4
:1023C600031795006B309400940BE729950BE729CA
:1023D600EC2903300A168A154F260A168A1102308E
:1023E6000A168A154F260A168A1102300A168A1507
:1023F6004F260A168A1108300A168A154F260A161B
:102406008A1100300A168A154F260A168A110C30D0
:102416000A168A154F260A168A1100300A168A15D8
:102426004F260A168A1106300A168A154F26080004
:10243600031083120313550D560DD7005708DD0000
:102446005D08031D2F2A0030D6000030D50000306D
:10245600D4000030D30008005308D7005408D80031
:102466005508D9005608DA001F300310DA0CD90CCB
:10247600D80CD70CFF3E031D382A5708DB005B0833
:10248600DC00D517FF30D305FF30D405FF30D50566
:102496000030D6059630DD02DD1F662A5D08803ADB
:1024A600973E031C262A01300310D60CD50CD40CFB
:1024B600D30CFF3E031D572A0130D7005708DD070E
:1024C6000319792A562A20305D020318262A5D0848
:1024D6000319792A0130D7000310D30DD40DD50D79
:1024E600D60DD70B6F2A0130DD026A2A5C08031964
:1024F6000800D309D409D509D609D30A0319D40A81
:102506000319D50A0319D60A080000307005F80029
:1025160000307105F90080307205FA007F307305CE
:10252600FB007B087A0479047804031DA22A003094
:10253600F3000030F2000030F1000030F00000300F
:102546007405F80000307505F90080307605FA004C
:102556007F307705FB007B087A0479047804031D35
:10256600BC2A0030F7000030F6000030F5000030DD
:10257600F400F31FE22A0030F8000030F9000030C2
:10258600FA008030FB007008F8027108031C710F16
:10259600CD2ACE2AF9027208031C720FD32AD42A36
:1025A600FA027308031C730FD92ADA2AFB027B0886
:1025B600F3007A08F2007908F1007808F000F71FB6
:1025C600082B0030F8000030F9000030FA008030A7
:1025D600FB007408F8027508031C750FF32AF42A29
:1025E600F9027608031C760FF92AFA2AFA02770806
:1025F600031C770FFF2A002BFB027B08F7007A08E3
:10260600F6007908F5007808F4008030F30680308B
:10261600F70677087302031D080076087202031D89
:10262600080075087102031D08007408700208008E
:102636000C1CA62B831203130C1CA62B0C100A16BB
:102646008A15BA250A168A11F401F40A01300A1607
:102656008A15B6270A168A11443083120313C3005B
:102666007F30C200C030C1000030C0004030A90039
:10267600A030A8000030A7000030A6000030F0000F
:10268600F1000A168A15F9250A168A117008F20051
:102696007108F3000030F31BFF30F400F500013041
:1026A6000A168A11B7230A168A11750883120313AC
:1026B600AD007408AC007308AB007208AA000A12D9
:1026C6008A15A2210A168A11831203132908C70044
:1026D6002808C6002708C5002608C4000A168A115D
:1026E6005C240A168A118312031343088316031304
:1026F600E90083120313420883160313E8008312CA
:102706000313410883160313E700831203134008DB
:1027160083160313E6009130C3004308A00069083E
:10272600A4006808A3006708A2006608A100C830D4
:102736000A128A1123200A168A11C8300A168A1527
:1027460031260A168A1183160313470883120313C8
:10275600FF008316031346088A0045088400440ECA
:102766008300FE0E7E0E090083120313A0002008CC
:10277600031DF51FCE2B7209A2007309A30074096D
:10278600A4007509A500A20A0319A30A0319A40A3D
:102796000319A50AD62B7508A5007408A4007308AA
:1027A600A3007208A2007508740473047204031D62
:1027B600E52B0030F5000030F4000030F300003067
:1027C600F20008009630F6007608A100FE302505D6
:1027D6000319162C0130F6007608A1070130031004
:1027E600A50CA40CA30CA20CFF3E031DF22BE92B97
:1027F6000130F6007608A1070130A2070030031861
:102806000130A307003003180130A4070030031875
:102816000130A50701300310A50CA40CA30CA20CD3
:10282600FF3E031D0E2CFF30250503192A2CFB2B1A
:1028360002302102031C2C2C0130A1020130F600CB
:102846000310A20DA30DA40DA50DF60B232CA41F9A
:102856001B2C2118362CFF30A205FF30A3057F3034
:10286600A405FF30A5050310A10C2108F600F70109
:10287600F801F90118300310F60DF70DF80DF90DF2
:10288600FF3E031D3E2C7608A2047708A3047808B1
:10289600A4047908A5042008031DF51F532CA517C9
:1028A6002508F5002408F4002308F3002208F200A6
:1028B60008008312031347088039C8004808D1006E
:1028C6004708C8004807C9004908D800C61B58145D
:1028D600580803197C2C580A031D792C0030C700B0
:1028E6000030C6000030C5000030C400C617C7015E
:1028F600842C0030C7000030C6000030C500003010
:10290600C40043088039C8004808D1064308C800F7
:102916004807C9004908D900C21B591459080319A8
:10292600A22C590A031D9F2C0030C3000030C200A0
:102936000030C1000030C000C217C301AA2C00300D
:10294600C3000030C2000030C1000030C0004308A0
:10295600420441044004031DC92C0030C700003066
:10296600C6000030C5000030C4008030C6047F3089
:10297600C7045108C8004808C7044708C3004608EA
:10298600C2004508C1004408C00008005808031DDD
:10299600D52C0030C3000030C2000030C10000302A
:1029A600C00008005808C800C9014908CB005908EA
:1029B6004802CA00031CCB034A087F3ED2004B08DC
:1029C6000318013E003ED3004708D0004608CF005A
:1029D6004508CE004408CD000030C7000030C600D0
:1029E6000030C5000030C4000030D7000030D600EB
:1029F6000030D5000030D400D9011A30590203182E
:102A0600482D59080319242D0130C8000310CD0D97
:102A1600CE0DCF0DD00DC80B092D0130C800031007
:102A2600C40DC50DC60DC70DC80B122DD71B4414FA
:102A36000130C8000310D40DD50DD60DD70DC80B27
:102A46001D2D43085002031D322D42084F02031D5F
:102A5600322D41084E02031D322D40084D02031C43
:102A6600432D57174008CD024108031C410FCE02E3
:102A76004208031C420FCF024308031C430FD00237
:102A86000130C8004808D907002D50084F044E04ED
:102A96004D04031D5414C61B6B2D0130C8000310D2
:102AA600C40DC50DC60DC70DC80B522DD71B44143A
:102AB6000130C8000310D40DD50DD60DD70DC80BA7
:102AC6005D2DFF30D2070318D30AFF30D3074E2DF2
:102AD600D901D71F842DFF305405C800FF30550596
:102AE600C900FF305605CA007F305705CB004B089A
:102AF6004A044904480403194418822D842DD90137
:102B0600D90A59080319B62D0130C4070030031835
:102B16000130C507003003180130C607003003181E
:102B26000130C707471CB62D4408C8004508C90030
:102B36004608CA004708CB000130CC004B0DCB0C31
:102B4600CA0CC90CC80CCC0BA12D4B08C7004A08EF
:102B5600C6004908C5004808C4000130D20703185A
:102B6600D30A0030D3075308803AFF0080307F0233
:102B7600031DBF2DFF305202031CCF2DFF308312E1
:102B86000313D2000030D3000030C7000030C60067
:102B96000030C5000030C400831203135308803A86
:102BA600FF0080307F02031DDA2D01305202031828
:102BB600E92D83120313D201D3010030C700003080
:102BC600C6000030C5000030C400D10183120313D3
:102BD6005208C8004808D800581CF32DC617F72D10
:102BE6007F30C8004808C6055808C8000310480CBE
:102BF600C9004908C700BC2C83120313D3006E30EA
:102C06005302031C112F3F30A9000030A8000030EA
:102C1600A7000030A6006430F6000030F700530825
:102C2600C400C5014408F8004508F9000A128A11D3
:102C3600BE270A168A11760883120313C6000130CE
:102C46000310C60DFF3E031D232E0310460D7D3EC9
:102C560084000A168A1100200A168A11C7000A166D
:102C66008A1100200A168A11C8000A168A11002045
:102C76000A168A11C9000A168A1100200A168A1134
:102C8600CA004A08AD004908AC004808AB0047082E
:102C9600AA000A128A15A2210A168A1183120313A0
:102CA6002908D2002808D1002708D0002608CF001E
:102CB6000A30F6000030F7005308C400C501440886
:102CC600F2004508F3006430F0000030F1000A1607
:102CD6008A1503270A168A117108F9007008F80088
:102CE6000A128A11BE270A168A117608831203135E
:102CF600C60001300310C60DFF3E031D7D2E0310D6
:102D0600460D593E84000A168A1100200A168A11B9
:102D1600C7000A168A1100200A168A11C8000A1668
:102D26008A1100200A168A11C9000A168A11002083
:102D36000A168A11CA004A08A9004908A8004808C4
:102D4600A7004708A6005208AD005108AC0050087D
:102D5600AB004F08AA000A128A15A2210A168A1188
:102D6600831203132908CE002808CD002708CC00BB
:102D76002608CB000A30F0000030F1005308C400EA
:102D8600C5014408F2004508F3000A168A15032710
:102D96000A168A11700883120313C6000130031045
:102DA600C60DFF3E031DD22E0310460D353E840090
:102DB6000A168A1100200A168A11C7000A168A11F5
:102DC60000200A168A11C8000A168A1100200A165F
:102DD6008A11C9000A168A1100200A168A11CA0029
:102DE6004A08A9004908A8004808A7004708A600FD
:102DF6004E08AD004D08AC004C08AB004B08AA00CD
:102E06000A128A15A221831203132908C30028086F
:102E1600C2002708C1002608C00008000B30530274
:102E2600031CBE2F3F30A9000030A8000030A700C9
:102E36000030A6000A30F6000030F7005308C40040
:102E4600C5014408F8004508F9000A128A11BE2790
:102E56000A168A11760883120313C600013003107E
:102E6600C60DFF3E031D322F0310460D593E84004A
:102E76000A168A1100200A168A11C7000A168A1134
:102E860000200A168A11C8000A168A1100200A169E
:102E96008A11C9000A168A1100200A168A11CA0068
:102EA6004A08AD004908AC004808AB004708AA002C
:102EB6000A128A15A2210A168A11831203132908F7
:102EC600D2002808D1002708D0002608CF000A30F3
:102ED600F0000030F1005308C400C5014408F200B8
:102EE6004508F3000A168A1503270A168A11700880
:102EF60083120313C60001300310C60DFF3E031DE7
:102F06007F2F0310460D353E84000A168A110020D5
:102F16000A168A11C7000A168A1100200A168A1193
:102F2600C8000A168A1100200A168A11C9000A1654
:102F36008A1100200A168A11CA004A08A9004908FF
:102F4600A8004808A7004708A6005208AD00510887
:102F5600AC005008AB004F08AA000A128A15A2213D
:102F6600831203132908C3002808C2002708C100DA
:102F76002608C00008003F30A9000030A800003035
:102F8600A7000030A6005308C40001300310C40D8A
:102F9600FF3E031DC92F0310440D353E84000A165B
:102FA6008A1100200A168A11C5000A168A11002005
:102FB6000A168A11C6000A168A1100200A168A11F4
:102FC600C7000A168A1100200A168A11C800480886
:102FD600AD004708AC004608AB004508AA000A1237
:102FE6008A15A221831203132908C3002808C200E8
:0A2FF6002708C1002608C0000800EB
:103B62007308720471047004031908008030F306AC
:103B7200080000300A168A15DF250A168A15013058
:103B82000A168A15DF250800F000701CCC2D83125E
:103B920003130816CF2D831203130812F01CD32D22
:103BA2008816D42D8812701DD82D0817D92D081308
:103BB200F01DDD2D8817080088130800F30083121A
:103BC2000313081173080A168A15C5250A168A15E1
:103BD2008312031388151A30F200F830F100F10B4A
:103BE200F02DF20BF02D0000831203138811080050
:103BF2007108803AFF0080307F02031D022E0330DD
:103C020070020318062E0130072E0030013883128D
:103C120003139F001F151F190C2E1E08F100831697
:103C220003131E08F0000800831603138801831291
:103C3200031388018316031386018312031386017B
:103C42000A168A119D200A168A150A168A11BA21A5
:103C52000A168A150A168A11A5200A168A15302E06
:103C6200F800F601F70176087807F5007508840078
:103C7200831300080319080076087807F500750811
:103C8200840000080A168A1535270A168A1501309B
:103C9200F6070318F70A0030F707342E83160317C6
:103CA20093008312031308118316031713080A16CD
:103CB2008A15D5260A168A158312031388151A3017
:103CC200831603179200F7309100910B662E920B28
:103CD200662E6B2E8312031388110800F401F5017E
:103CE200701C792E7208F4070318F50A7308F50799
:103CF20001300310F20DF30DFF3E031D7A2E013049
:103D02000310F10CF00CFF3E031D812E70087104AC
:103D1200031D712E7508F1007408F0000800803050
:103D220083120313EB066F08D7006E08D6006D08E6
:103D3200D5006C08D4006B08DB006A08DA00690859
:103D4200D9006808D8000A128A118F25831203133A
:103D52005708EB005608EA005508E9005408E80045
:103D62000800F800F401F5017008F200F30172088E
:103D7200F6007308F700781CC42E7608F4070318BF
:103D8200F50A7708F50701300310F60DF70DFF3E2F
:103D9200031DC52E0310F80C7808031DBC2E7508F0
:103DA200F1007408F0000800831603179000101C3D
:103DB200DE2E831203130816E12E83120313081258
:103DC20083160317901CE92E831203138816EC2E18
:103DD20083120313881283160317101DF42E831205
:103DE20003130817F72E83120313081383160317FE
:103DF200901DFF2E831203138817080083120313EA
:103E020088130800700871040319302FF501F50AB0
:103E1200F11B172F01300310F00DF10DFF3E031DB2
:103E22000C2F0130F4007408F507092F7108730292
:103E3200031D1D2F70087202031C252F7008F20249
:103E42007108031CF303F30201300310F10CF00CB0
:103E5200FF3E031D262F0130F502031D172F7308A5
:103E6200F1007208F0000800F40074080F39F10044
:103E72007108F2007408F039F1007108F30083123E
:103E8200031308157308F10004300310F10CFF3E10
:103E9200031D462F71080A168A15C5250A168A15AA
:103EA2008312031388154230F100F10B562F0000E4
:103EB20083120313881172080A168A15C5250A1679
:103EC2008A158312031388154230F100F10B672F14
:103ED2000000831203138811080000307005F800F7
:103EE20000307105F90080307205FA007F307305E9
:103EF200FB007B087A0479047804031D882F0030C4
:103F0200F3000030F2000030F1000030F000003029
:103F12007405F80000307505F90080307605FA0066
:103F22007F307705FB007B087A0479047804031D4F
:103F3200A22F0030F7000030F6000030F50000300C
:103F4200F40077087306031DB02F76087206031D6E
:103F5200B02F75087106031DB02F7408700603197F
:103F6200B42F0310080003140800F7007703031DA1
:103F7200DB2F74087F3EF5007508FA007A08F50019
:103F820004300310F50CFF3E031DC22F7508F60026
:103F92007608F8007A080F39F5007508F9007808F4
:103FA2000A168A15DF250A168A1579080A168A154D
:103FB200DF25080002307706031D08007408BF3EA3
:103FC200F5007508FA007A08F50004300310F50CC4
:103FD200FF3E031DE72F7508F6007608F8007A0801
:103FE2000F39F5007508F90078080A168A15DF25D9
:0E3FF2000A168A1579080A168A15DF250800B6
:00000001FF
